:10000000020B2AD3EF9400EE940040147DE87C03A9
:10001000ED1D70011CED4C70F7EF1F70E61E80E3C4
:0100200022BD
:10002300020BB602034CE86480F8E933E83360114D
:100033000460F0ED33EC337009E8FCE9FDEAFEEB14
:10004300FF220460DED3EB9FEA9EE99DE8C2E78CC2
:10005300F0C2F795F0400CE8CCF8E9CDF9EACEFA16
:10006300EBCFFB12031785D0F05804700320D5B3F0
:10007300E80470075002B2D502035692D5EC04602F
:10008300F7E4CCC0E0C398F8603B94186008400DD7
:10009300D0E0FB02032EE4FBFAC9FC8028E830E43D
:1000A30006E4C9FBE4CAFCE830E305E4C9CACBFCB7
:1000B300E854076010F8C3E913F9EA13FAEB13FBEA
:1000C300EC13FCD8F130F52FC3E49CFCEF9BFFEE5F
:1000D3009AFEED99FDD0E0FBEF4E4D4C701222DB02
:1000E30003020353EC2CFCEF33FFEE33FEED33FD41
:1000F300ED30E7EB02032EEF2BFFEE3AFEED39FD79
:10010300D0E0FB50130BBB0003020356ED13FDEECF
:1001130013FEEF13FFEC13FC02032EEC4D6011E80A
:10012300497017ED33EC3304600DE4FCFFFEFD2250
:10013300E933E8330470F802034C120317580460E0
:1001430009E4CC24815006285009020356284003B1
:10015300020353C0E0EB4A7044B98006D0E0FB02CF
:100163000342EF4E701CBD8008EBFFEAFEE9FD8001
:10017300EBE98DF0A4FEE5F0020207E9CDF9EAFE12
:10018300EBFFEF89F0A4FCE5F0CE89F0A42EFFE4A9
:1001930035F0CD89F0A42DFEE435F08067EF4E7085
:1001A30005BD80D780C3EF8BF0A4ACF0EE8BF0A439
:1001B3002CFCE435F0F8EF8AF0A42CE5F038FCE4ED
:1001C30033CB8DF0A42CFCE5F03BF8EE8AF0A42CA5
:1001D300FCE5F038F8E433CF89F0A42CFCE5F038E3
:1001E300CF3400CE89F0A42FFFE5F03EFEE433C9FF
:1001F3008DF0A42EFEE5F039CD8AF0A42FFFE5F0B3
:100203003EFEE43DFD33D0E0FB50070BBB000F0285
:100213000356EC2CFCEF33FFEE33FEED33FD02030C
:100223002E74F8CC6480CCC86480C8F58204604323
:10023300C3EB9FF5F0EA9E42F0E99D42F0E89C454E
:10024300F060305018E5825FFFE582F42B5582FBA6
:1002530050210ABA001D09B90019088016E5825B0E
:10026300FBE582F42F5582FF50090EBE00050DBD3C
:1002730000010CC3EB9FF5F0EA9E42F0E99D42F0CA
:10028300E89C45F06007CC4820E701B3EC22ED334E
:10029300EC33600A047003BD8004ECB2E7FC227502
:1002A300F020800E75F010800575F0087D007E004B
:1002B3007F003392D530D5031206A2EC334010EF02
:1002C30033FFEE33FEED33FDEC33FCD5F0ED22E5E9
:1002D300F0247EA2D513CC92E7CDCEFF22EDD2E758
:1002E300CD33EC3392D524814006E4FFFEFDFC229E
:1002F300FCE4CFCECDCC24E0501174FF80EDC3CC11
:1003030013CCCD13CDCE13CECF13CF0470F030D595
:10031300DE0206A2E9D2E7C933E833F892D5EDD27B
:10032300E7CD33EC33FC5002B2D522EC30E7100FAB
:10033300BF000C0EBE00080DBD00040BEB6014A241
:10034300D5EB13FCED92E7FD2274FFFCFDFEFF22CB
:10035300E480F8A2D574FF13FC7D80E480EFF920DC
:10036300E73624F950037907E4F42402FBE5821508
:100373008270021583DBF6E024FB501BE96014E472
:10038300F0E582158270021583E004F0B40A08E4F4
:10039300F0D9EE7401F00A22C2D522ED33EC339288
:1003A300D5FA602AB4FF33EDC2E77BFF60067A0318
:1003B30079C3E4227A0379CC20D5047A0379C7225E
:1003C3004E614E002B494E46002D494E4600E47ABD
:1003D30008F0A3DAFC7B00740722C083C082ECC060
:1003E300E0EDC0E0EEC0E0EFC0E0EA75F010A4CAB3
:1003F300ABF075F04DA42BFBE435F0FCEA2410FAC6
:10040300EB34C5FBEC34D9FCEDC2E7FF75F056A421
:10041300F42411C5F0F434C58FF0A42AE5F03BE4CD
:100423003CF020E714120573D0E0FFD0E0FED0E0EB
:10043300FDD0E0FC1204A68014F404120573D0E08E
:10044300FFD0E0FED0E0FDD0E0FC12011ED082D050
:1004530083E0FAEDD2E7CD33EC332482FBE4C3CF60
:1004630033CFCE33CECD33CD33DBF37B0775F00AF9
:10047300846004F0A31B0AE5F0F0A38FF0740AA4D0
:10048300FFACF08EF0740AA42CFEACF050010C8D7E
:10049300F0740AA42CFDE435F0F0A3DBDE7407222C
:1004A300020356EC5D046005E85904700302034C33
:1004B300120317580460F6EC4860F2EC7004FDFE7A
:1004C300FF22C860DB2481C85009C398600250062C
:1004D3000203539850CAF582E9294B4A7005AB824F
:1004E30002034275F0007C1A7880C3EF9BEE9AED0D
:1004F30099400DC3EF9BFFEE9AFEED99FDE842F0A4
:10050300DC23ACF0D0E0FFD0E0FED0E0FDAB8220F6
:10051300E7101BEB60BAEC2CFCEF33FFEE33FEED80
:1005230033FD02032EE803F830E705C0F075F00051
:10053300EF2FFFEE33FEED33FD40B830E7C280AA64
:100543003F8000004120000042C80000447A0000C0
:10055300461C400047C35000497424004B18968042
:100563004CBEBC205A0E1BCA6753C21C749DC5AE39
:10057300FB60065407601C23231205A1EB5438606B
:100583000912058D12059C12011EECF8EDF9EEFA25
:10059300EFCB22EB12059C80F1543803241C900509
:1005A30043FE93FC0EEE93FD0EEE930ECE93FF22CD
:1005B300BB010689828A83E0225002E722BBFE0246
:1005C300E32289828A83E49322BB010CE58229F525
:1005D30082E5833AF583E0225006E92582F8E62294
:1005E300BBFE06E92582F8E222E58229F582E5834E
:1005F3003AF583E49322BB010689828A83F0225071
:1006030002F722BBFE01F322EF8DF0A4A8F0CF8CFA
:10061300F0A428CE8DF0A42EFE22C2D5EC30E7093B
:10062300B2D5E4C39DFDE49CFCEE30E715B2D5E4FE
:10063300C39FFFE49EFE120733C3E49DFDE49CFCCD
:10064300800312073330D507C3E49FFFE49EFE22E5
:10065300E88FF0A4CC8BF0A42CFCE98EF0A42CFC46
:100663008AF0EDA42CFCEA8EF0A4CDA8F08BF0A4C4
:100673002DCC3825F0FDE98FF0A42CCD35F0FCEB23
:100683008EF0A4FEA9F0EB8FF0A4CFC5F02ECD39E8
:10069300FEE43CFCEAA42DCE35F0FDE43CFC22C391
:1006A300E49FFFE49EFEE49DFDE49CFC22ECF0A3AA
:1006B300EDF0A3EEF0A3EFF022A8828583F0D083C0
:1006C300D0821206D31206D31206D31206D3E473D2
:1006D300E493A3C583C5F0C583C8C582C8F0A3C589
:1006E30083C5F0C583C8C582C822F8E0FBA3A3E095
:1006F300F925F0F0E582158270021583E0FA38F0EF
:1007030022EBF0A3EAF0A3E9F022D083D082F8E44D
:10071300937012740193700DA3A393F8740193F56E
:10072300828883E4737402936860EFA3A3A380DFDA
:10073300BC000BBE0029EF8DF084FFADF022E4CCAA
:10074300F875F008EF2FFFEE33FEEC33FCEE9DEC73
:10075300984005FCEE9DFE0FD5F0E9E4CEFD22EDB9
:10076300F8F5F0EE8420D21CFEADF075F008EF2F03
:10077300FFED33FD4007985006D5F0F222C398FDF4
:100783000FD5F0EA2275F008758200EF2FFFEE33E4
:10079300FECD33CDCC33CCC58233C5829BED9AECF1
:1007A30099E58298400CF582EE9BFEED9AFDEC995B
:1007B300FC0FD5F0D6E4CEFBE4CDFAE4CCF9A88265
:1007C30022B800C1B90059BA002DEC8BF084CFCE0A
:1007D300CDFCE5F0CBF97818EF2FFFEE33FEED33C8
:1007E300FDEC33FCEB33FB10D703994004EB99FB8F
:1007F3000FD8E5E4F9FA227818EF2FFFEE33FEED78
:1008030033FDEC33FCC933C910D7059BE99A400784
:10081300EC9BFCE99AF90FD8E0E4C9FAE4CCFB229B
:1008230075F010EF2FFFEE33FEED33FDCC33CCC864
:1008330033C810D7079BEC9AE899400AED9BFDEC6F
:100843009AFCE899F80FD5F0DAE4CDFBE4CCFAE4AE
:10085300C8F922900026EEF0A3EFF0A3EDF0A3EB8E
:10086300F0A3EAF0A3E9F0900029A3E0FAA3E04A99
:10087300700CC3900026E0940040030209B8900076
:1008830026E0FAA3E0FBFFC374229FFF74019AFEE4
:100893007C007D0612061DEF2401FFE43E90002E2E
:1008A300F0A3EFF0C201D3EB9422EA940140069047
:1008B3000028E004F0900028E0FFC394004006EF16
:1008C300D3940F4002C322900029E0FBA3E0FAA3D4
:1008D300E0F9120EEF90002CEEF0A3EFF0A3E0FC92
:1008E300A3E0FDC39FEC9E500AA3ECF0A3EDF0D26E
:1008F30001800F90002CE0FFA3E0900030CFF0A325
:10090300EFF0900026E0FEA3E0FFA3E0900030129A
:1009130009BA7F91120D9A7F13120D9AE490003257
:10092300F0900032E0FFD3900031E09F900030E080
:100933009400404FE4900033F0900033E0FFC39401
:10094300065038900029E0FBA3E0FAA3E0F99000F9
:1009530032E0F5827583001205CC75F006A42450AD
:10096300F582E5F0340EF583E5822FF582E43583D5
:10097300120CBF900033E004F080BE900032E0041C
:10098300F0809E120ED77F92120D9A200102D3227D
:10099300900028E004FDA3E0FBA3E0FAA3E0F990B4
:1009A3000030E0FEA3E0FFE92FF9EA3EFAE4FFFEA0
:1009B300120856D322C322FDE0FAA3E0FB900034D1
:1009C300EEF0A3EFF0A3EDF0A3EAF0A3EBF07F903A
:1009D300120D9A900036E0FFC394004013EFD394B6
:1009E3000F500DEF120D09900036E0120D09800330
:1009F3007F0022900034E0FAA3E0FBC3EA940040B6
:100A030075900038E024FFFF900037E034FFFE7C50
:100A1300007D0612060BEB2FFFEA3EFED3EF942276
:100A2300EE94015051900034E05401FF120D0F90E9
:100A33000034A3E0FF120D0F900037E0FEA3E0FFA8
:100A43007C007D0612060BEF24FFFFEE34FFFE90C1
:100A53000035E02F900034E03E5401FF120D0F905B
:100A63000037A3E075F006A414FF900034A3E02F31
:100A7300FF120D0F80037F00227F01120D0F7F01F4
:100A83007E001200037F0122546865207072656D39
:100A9300697365206F66207468697320626F6F6B7A
:100AA3002069732073696D706C653A207768656E91
:100AB30020697420636F6D657320746F20706C659B
:100AC30061737572696E6720776F6D656E20616EF5
:100AD3006420636F6E76657273696E6720696E203A
:100AE300746865206C616E6775616765206F662049
:100AF3006C6F76652C2063756E6E696C696E6775B5
:100B0300732073686F756C64206265206576657207
:100B130079206D616E2773206E6174697665207428
:100B23006F6E6775652E00787FE4F6D8FD758120BA
:100B3300020B71020E7EE493A3F8E493A34003F641
:100B43008001F208DFF48029E493A3F85407240C0E
:100B5300C8C333C4540F4420C8834004F4568001EF
:100B630046F6DFE4800B0102040810204080900E5B
:100B730022E47E019360BCA3FF543F30E509541F78
:100B8300FEE493A360010ECF54C025E060A840B8F3
:100B9300E493A3FAE493A3F8E493A3C8C582C8CA71
:100BA300C583CAF0A3C8C582C8CAC583CADFE9DE44
:100BB300E780BEC0E0C083C082C0D075D000C0064D
:100BC300C007900022E0FF04F074002FF582E434A4
:100BD30000F583E599F0900021E0FF241EF582E4FF
:100BE3003400F583E599F074232FF582E43400F59E
:100BF30083E0FF900021E0FE241EF582E43400F53B
:100C030083E0B50718EEC394035006900021E00477
:100C1300F0900021E0B4030A75C7608005900021BD
:100C2300E4F0C298D007D006D0D0D082D083D0E0F1
:100C33003290002874FFF0C2947F10120D9AE49052
:100C43000026F0A3F0900028E0FF120D0F9000277C
:100C5300E004F07006900026E004F0C3900027E063
:100C63009480900026E0941240DBD294C2957F13C7
:100C7300120D9AE4900026F0A3F0900028E0FF12F2
:100C83000D0F900027E004F07006900026E004F0BA
:100C9300C3900027E09480900026E0941240DBD2BA
:100CA3009522900000E075F006A42450F582E5F04B
:100CB300340EF583E5822FF582E5833EF583E493D5
:100CC300F4FF900034EFF0C283D282120F04E49059
:100CD3000035F0C285120F04900034E05401FF7018
:100CE30004C2848002D284120F04D285900034E0BF
:100CF300FFC313F0120F04900035E004F0E0C39437
:100D03000840D0D2832233333354F8FF900039EFB5
:100D1300F0C283D282120F04E490003AF0C285122B
:100D23000F04900039E05480FF7004C2848002D223
:100D330084120F04D285900039E0FF25E0F0120FF2
:100D43000490003AE004F0E0C3940840D0D2832238
:100D5300120EBC7F06120D9A7F17120D0F7F17120A
:100D63000D0F7F17120D0F7F04120D9A120E5AE406
:100D7300FF120D9A7F17120D0F7F61120D9A7F805C
:100D8300120D0F7F01120D0F7F28120D0F7F5012CE
:100D93000D9A7F97020D0F900039EFF0C283C28244
:100DA300120F04E490003AF0C285120F0490003948
:100DB300E05480FF7004C2848002D284120F04D2F4
:100DC30085900039E0FF25E0F0120F0490003AE02F
:100DD30004F0E0C3940840D0D28322C2D5E830E7C0
:100DE3000FB2D5E4C39BFBE49AFAE499F9E498F8CB
:100DF300EC30E717B2D5120E141207C4E4C39BFB01
:100E0300E49AFAE499F9E498F880031207C430D518
:100E13000DE4C39FFFE49EFEE49DFDE49CFC225E83
:100E230000000000000000000000000000000000BF
:100E330000000000000000000000000000000000AF
:100E430041002200410021004300235A5A24430059
:100E53001E000000C100007F71120D9AD2807F0234
:100E63007E00120003A280E4337E0020E0027E01B4
:100E7300AF06EF70E27F96FE0200037FC87E00128A
:100E83000003120D53120C34120ED77BFF7A0A792A
:100E93008BE4FDFFFE120856120EA080FE7F501257
:100EA3000D9A7FF7120D0F7F02120D9A120E5A7FC1
:100EB30007120D9A7FA5020D0FD2817F967E001235
:100EC3000003C2817F967E00120003D2817F967E4B
:100ED30000020003C294C2957F12120D9A7F017E15
:100EE30000120003120E5AD294D29522E4FFFE128E
:100EF30005B3600C0FEF70010E09E970F20A80EF81
:100F0300227F01AE071FEE60030080F7220000007E
:100F13000000000000002F00000000070007000091
:100F2300147F147F1400242A7F2A1200626408139A
:100F33002300364955225000000503000000001C21
:100F4300224100000041221C000014083E08140046
:100F530008083E0808000000A06000000808080810
:100F630008000060600000002010080402003E51E9
:100F730049453E0000427F4000004261514946001E
:100F83002141454B31001814127F10002745454578
:100F930039003C4A494930000171090503003649CB
:100FA30049493600064949291E000036360000002B
:100FB30000563600000008142241000014141414D3
:100FC30014000041221408000201510906003249AD
:100FD30059513E007C1211127C007F494949360069
:100FE3003E41414122007F4141221C007F49494942
:100FF30041007F09090901003E4149497A007F0800
:1010030008087F0000417F4100002040413F01006C
:101013007F08142241007F40404040007F020C02C1
:101023007F007F0408107F003E4141413E007F095D
:10103300090906003E4151215E007F091929460036
:1010430046494949310001017F0101003F404040C9
:101053003F001F2040201F003F4038403F006314E3
:1010630008146300070870080700615149454300ED
:10107300007F41410000552A552A55000041417F18
:10108300000004020102040040404040400000010F
:10109300020400002054545478007F48444438002C
:1010A300384444442000384444487F00385454545E
:1010B3001800087E0901020018A4A4A47C007F087C
:1010C3000404780000447D4000004080847D0000DB
:1010D3007F102844000000417F4000007C04180476
:1010E30078007C0804047800384444443800FC2425
:1010F3002424180018242418FC007C080404080085
:10110300485454542000043F444020003C404020B5
:101113007C001C2040201C003C4030403C00442804
:10112300102844001CA0A0A07C004464544C44003C
:1011330000187E810000817E1800000000FFFF0080
:071143000008100804081069
:00000001FF
