:10000000021B2FD3EF9400EE940040147DE87C0394
:10001000ED1D70011CED4C70F7EF1F70E61E80E3C4
:0200200022328A
:1000230002002102034CE86480F8E933E8336011ED
:100033000460F0ED33EC337009E8FCE9FDEAFEEB14
:10004300FF220460DED3EB9FEA9EE99DE8C2E78CC2
:10005300F0C2F795F0400CE8CCF8E9CDF9EACEFA16
:10006300EBCFFB12031785D0F05804700320D5B3F0
:10007300E80470075002B2D502035692D5EC04602F
:10008300F7E4CCC0E0C398F8603B94186008400DD7
:10009300D0E0FB02032EE4FBFAC9FC8028E830E43D
:1000A30006E4C9FBE4CAFCE830E305E4C9CACBFCB7
:1000B300E854076010F8C3E913F9EA13FAEB13FBEA
:1000C300EC13FCD8F130F52FC3E49CFCEF9BFFEE5F
:1000D3009AFEED99FDD0E0FBEF4E4D4C701222DB02
:1000E30003020353EC2CFCEF33FFEE33FEED33FD41
:1000F300ED30E7EB02032EEF2BFFEE3AFEED39FD79
:10010300D0E0FB50130BBB0003020356ED13FDEECF
:1001130013FEEF13FFEC13FC02032EEC4D6011E80A
:10012300497017ED33EC3304600DE4FCFFFEFD2250
:10013300E933E8330470F802034C120317580460E0
:1001430009E4CC24815006285009020356284003B1
:10015300020353C0E0EB4A7044B98006D0E0FB02CF
:100163000342EF4E701CBD8008EBFFEAFEE9FD8001
:10017300EBE98DF0A4FEE5F0020207E9CDF9EAFE12
:10018300EBFFEF89F0A4FCE5F0CE89F0A42EFFE4A9
:1001930035F0CD89F0A42DFEE435F08067EF4E7085
:1001A30005BD80D780C3EF8BF0A4ACF0EE8BF0A439
:1001B3002CFCE435F0F8EF8AF0A42CE5F038FCE4ED
:1001C30033CB8DF0A42CFCE5F03BF8EE8AF0A42CA5
:1001D300FCE5F038F8E433CF89F0A42CFCE5F038E3
:1001E300CF3400CE89F0A42FFFE5F03EFEE433C9FF
:1001F3008DF0A42EFEE5F039CD8AF0A42FFFE5F0B3
:100203003EFEE43DFD33D0E0FB50070BBB000F0285
:100213000356EC2CFCEF33FFEE33FEED33FD02030C
:100223002E74F8CC6480CCC86480C8F58204604323
:10023300C3EB9FF5F0EA9E42F0E99D42F0E89C454E
:10024300F060305018E5825FFFE582F42B5582FBA6
:1002530050210ABA001D09B90019088016E5825B0E
:10026300FBE582F42F5582FF50090EBE00050DBD3C
:1002730000010CC3EB9FF5F0EA9E42F0E99D42F0CA
:10028300E89C45F06007CC4820E701B3EC22ED334E
:10029300EC33600A047003BD8004ECB2E7FC227502
:1002A300F020800E75F010800575F0087D007E004B
:1002B3007F003392D530D5031206A2EC334010EF02
:1002C30033FFEE33FEED33FDEC33FCD5F0ED22E5E9
:1002D300F0247EA2D513CC92E7CDCEFF22EDD2E758
:1002E300CD33EC3392D524814006E4FFFEFDFC229E
:1002F300FCE4CFCECDCC24E0501174FF80EDC3CC11
:1003030013CCCD13CDCE13CECF13CF0470F030D595
:10031300DE0206A2E9D2E7C933E833F892D5EDD27B
:10032300E7CD33EC33FC5002B2D522EC30E7100FAB
:10033300BF000C0EBE00080DBD00040BEB6014A241
:10034300D5EB13FCED92E7FD2274FFFCFDFEFF22CB
:10035300E480F8A2D574FF13FC7D80E480EFF920DC
:10036300E73624F950037907E4F42402FBE5821508
:100373008270021583DBF6E024FB501BE96014E472
:10038300F0E582158270021583E004F0B40A08E4F4
:10039300F0D9EE7401F00A22C2D522ED33EC339288
:1003A300D5FA602AB4FF33EDC2E77BFF60067A0318
:1003B30079C3E4227A0379CC20D5047A0379C7225E
:1003C3004E614E002B494E46002D494E4600E47ABD
:1003D30008F0A3DAFC7B00740722C083C082ECC060
:1003E300E0EDC0E0EEC0E0EFC0E0EA75F010A4CAB3
:1003F300ABF075F04DA42BFBE435F0FCEA2410FAC6
:10040300EB34C5FBEC34D9FCEDC2E7FF75F056A421
:10041300F42411C5F0F434C58FF0A42AE5F03BE4CD
:100423003CF020E714120573D0E0FFD0E0FED0E0EB
:10043300FDD0E0FC1204A68014F404120573D0E08E
:10044300FFD0E0FED0E0FDD0E0FC12011ED082D050
:1004530083E0FAEDD2E7CD33EC332482FBE4C3CF60
:1004630033CFCE33CECD33CD33DBF37B0775F00AF9
:10047300846004F0A31B0AE5F0F0A38FF0740AA4D0
:10048300FFACF08EF0740AA42CFEACF050010C8D7E
:10049300F0740AA42CFDE435F0F0A3DBDE7407222C
:1004A300020356EC5D046005E85904700302034C33
:1004B300120317580460F6EC4860F2EC7004FDFE7A
:1004C300FF22C860DB2481C85009C398600250062C
:1004D3000203539850CAF582E9294B4A7005AB824F
:1004E30002034275F0007C1A7880C3EF9BEE9AED0D
:1004F30099400DC3EF9BFFEE9AFEED99FDE842F0A4
:10050300DC23ACF0D0E0FFD0E0FED0E0FDAB8220F6
:10051300E7101BEB60BAEC2CFCEF33FFEE33FEED80
:1005230033FD02032EE803F830E705C0F075F00051
:10053300EF2FFFEE33FEED33FD40B830E7C280AA64
:100543003F8000004120000042C80000447A0000C0
:10055300461C400047C35000497424004B18968042
:100563004CBEBC205A0E1BCA6753C21C749DC5AE39
:10057300FB60065407601C23231205A1EB5438606B
:100583000912058D12059C12011EECF8EDF9EEFA25
:10059300EFCB22EB12059C80F1543803241C900509
:1005A30043FE93FC0EEE93FD0EEE930ECE93FF22CD
:1005B300BB010689828A83E0225002E722BBFE0246
:1005C300E32289828A83E49322BB010CE58229F525
:1005D30082E5833AF583E0225006E92582F8E62294
:1005E300BBFE06E92582F8E222E58229F582E5834E
:1005F3003AF583E49322BB010689828A83F0225071
:1006030002F722BBFE01F322EF8DF0A4A8F0CF8CFA
:10061300F0A428CE8DF0A42EFE22C2D5EC30E7093B
:10062300B2D5E4C39DFDE49CFCEE30E715B2D5E4FE
:10063300C39FFFE49EFE120733C3E49DFDE49CFCCD
:10064300800312073330D507C3E49FFFE49EFE22E5
:10065300E88FF0A4CC8BF0A42CFCE98EF0A42CFC46
:100663008AF0EDA42CFCEA8EF0A4CDA8F08BF0A4C4
:100673002DCC3825F0FDE98FF0A42CCD35F0FCEB23
:100683008EF0A4FEA9F0EB8FF0A4CFC5F02ECD39E8
:10069300FEE43CFCEAA42DCE35F0FDE43CFC22C391
:1006A300E49FFFE49EFEE49DFDE49CFC22ECF0A3AA
:1006B300EDF0A3EEF0A3EFF022A8828583F0D083C0
:1006C300D0821206D31206D31206D31206D3E473D2
:1006D300E493A3C583C5F0C583C8C582C8F0A3C589
:1006E30083C5F0C583C8C582C822F8E0FBA3A3E095
:1006F300F925F0F0E582158270021583E0FA38F0EF
:1007030022EBF0A3EAF0A3E9F022D083D082F8E44D
:10071300937012740193700DA3A393F8740193F56E
:10072300828883E4737402936860EFA3A3A380DFDA
:10073300BC000BBE0029EF8DF084FFADF022E4CCAA
:10074300F875F008EF2FFFEE33FEEC33FCEE9DEC73
:10075300984005FCEE9DFE0FD5F0E9E4CEFD22EDB9
:10076300F8F5F0EE8420D21CFEADF075F008EF2F03
:10077300FFED33FD4007985006D5F0F222C398FDF4
:100783000FD5F0EA2275F008758200EF2FFFEE33E4
:10079300FECD33CDCC33CCC58233C5829BED9AECF1
:1007A30099E58298400CF582EE9BFEED9AFDEC995B
:1007B300FC0FD5F0D6E4CEFBE4CDFAE4CCF9A88265
:1007C30022B800C1B90059BA002DEC8BF084CFCE0A
:1007D300CDFCE5F0CBF97818EF2FFFEE33FEED33C8
:1007E300FDEC33FCEB33FB10D703994004EB99FB8F
:1007F3000FD8E5E4F9FA227818EF2FFFEE33FEED78
:1008030033FDEC33FCC933C910D7059BE99A400784
:10081300EC9BFCE99AF90FD8E0E4C9FAE4CCFB229B
:1008230075F010EF2FFFEE33FEED33FDCC33CCC864
:1008330033C810D7079BEC9AE899400AED9BFDEC6F
:100843009AFCE899F80FD5F0DAE4CDFBE4CCFAE4AE
:10085300C8F922E508241FF582E43400F583E00596
:10086300082290001C30070390001FE475F001126A
:1008730006ED0205B32000E97F2ED2008018EF5465
:100883000F2490D43440D4FF30040BEF24BFB41AA8
:100893000050032461FFE50960021509050CE50C0E
:1008A3007002050B30070E90001CE475F001120670
:1008B300EDEF0205F9021A307403D2078003E4C294
:1008C30007F50890001C120704E4F509F50BF50C75
:1008D300E50960077F2012089980F5750AFFC201B8
:1008E300C200C202C203C205C206C208120865FFE3
:1008F300700D3007057F001208AAAF0CAE0B22B4AF
:10090300255FC2D5C204120865FF24D0B40A005083
:100913001A75F00A780930D50508B6FF0106C6A492
:1009230026F620D5047002D20380D924CFB41A004E
:10093300EF5004C2E5D204020B9CD20180C6D20060
:1009430080C0D20280BCD2D580BAD20580B47F20C9
:100953001208992002077401B5090040F1120856E4
:10096300FF1208990208D3D208D2068095120856BE
:10097300FB120856FA120856F94A4B7006799A7A0E
:100983000C7BFF20022EE509602A7E008E82758390
:10099300001205CC60060EEE650A70F0C2D5EBC0FE
:1009A300E0EAC0E0E9C0E0EE120BFDD0E0F9D0E0F0
:1009B300FAD0E0FB1205B3FF60AAEBC0E0EAC0E0A7
:1009C300E9C0E0120899D0E02401F9D0E03400FA3C
:1009D300D0E0FBE50A0460DCD50AD98087D2028027
:1009E300A2120BDF60F7E50A700104120361A90A82
:1009F300600DE50A600914F50A120C87EF60F3EA4B
:100A030030E702F404C3995079EAF4250A0430E785
:100A130001E404F50A800D120BDF60C1EA050A2523
:100A23000A120361EA90004BF030E701E4250A045F
:100A3300D50A0420050114120BFDE4C0E0120C8753
:100A430090004BE0601320E70714F0120881802226
:100A530004F0D0E014C0E07F00120881E50A6007CB
:100A6300120878150A800B300503120878D0E002CB
:100A730008D3D0E00480C4120BDF609EE50A0412A1
:100A8300036190004BEAF0E50A20050260010424AB
:100A930004120BFD74FF04C0E0120C87120881E5F9
:100AA3000A2005026003120878D0E0B50AE87F4502
:100AB30012088B90004BE07F2B30E7047F2DF4046A
:100AC300C0E0120899D0E075F00A84C0F0120882E1
:100AD300D0E01208820208D3791080027908C20696
:100AE300C2088008D2D5790A8004790AC2D5E50AFA
:100AF300047002F50AE4FAFDFEFF120856FC7B08B7
:100B0300200113120856FD7B1030000A120856FE0E
:100B1300120856FF7B20EC3382D592D55013C3E4E1
:100B23003000069FFFE49EFEE42001039DFDE49C4C
:100B3300FCE4CBF8C201EC700CCFCECDCCE824F8AA
:100B4300F870F38017C3EF33FFEE33FEED33FDECA4
:100B530033FCEB33FB994002FB0FD8E9EB30010583
:100B6300F8D0E0C448B201C0E00AEC4D4E4F782003
:100B73007B0070C2EAB50A0040BCC0E0120BFFD094
:100B8300F0D0E0200104C4C0E0C4B201C0F01208F8
:100B930082D0F0D5F0EB0208D312070D0970530A87
:100BA300DB5809414C093D420ADF4F0AE7440AE793
:100BB300490956430AED550A1A460A7A4509E44794
:100BC3000CBA5009452D09492E096C2B094D2309EF
:100BD3006A200CA32A09054800000964E50AB4FF4A
:100BE30003750A06120856FC120856FD120856FE33
:100BF300120856FF90004402039E790AA2D52003EF
:100C030014300509B910020404B9080104A2D5205F
:100C130006025001042002689202B509005034C054
:100C2300E07F203003197F30A20272067205500F55
:100C3300120C56C202C206C205C2087F30800F30B2
:100C43000503E9C0E0120899300503D0E0F9D0E0CC
:100C5300B509CC3005177F30B9100C1208997F58AD
:100C63003004077F788003B908031208993002051E
:100C73007F2D0208997F202008F87F2B2006F3227E
:100C8300920280CF7F00B40700500B2444F582E426
:100C93003400F583E0FF22286E756C6C2900D201C5
:100CA3001208563001F8C201780930D50108F6025E
:100CB30009052D504349581208562403B405004032
:100CC30001E4900CB59312088A743A12088AD2038D
:100CD300750904020ADB900000EEF0A3EFF0A3ED28
:100CE300F0E4900007F0900003E0FCA3E0FDA3E034
:100CF300FEA3E0FF9000081206B0900003E0FCA3FF
:100D0300E0FDA3E0FEA3E0FF1219CE1202E0900083
:100D13000C1206B0C200E4FFFEFDFC900003E0F8F5
:100D2300A3E0F9A3E0FAA3E0FB1202245002D200ED
:100D3300E4FFFEFDFC900003E0F8A3E0F9A3E0FA72
:100D4300A3E0FB1202247006900007F0803A9000A3
:100D53000CE0FCA3E0FDA3E0FEA3E0FFEC4D4E4F4F
:100D6300601D90000CA3A3A3E47B0AFAF9F81219FF
:100D73000D90000C1206B0900007E004F080CF2025
:100D83000006900007E014F0900003E0FCA3E0FDF0
:100D9300A3E0FEA3E0FF121703503D900007E0FB22
:100DA3007A007C007D06FF7E0012060BC3740B9F46
:100DB300FD74019EFC900000E0FEA3E0FFD39DEED6
:100DC3009C400122900002E0FDEB2404FBE43AFA8C
:100DD3001211E0EF703FC322900007E0FB7A007C22
:100DE300007D06FF7E0012060BC3741D9FFD740178
:100DF3009EFC900000E0FEA3E0FFD39DEE9C40012B
:100E030022900002E0FDEB2401FBE43AFA1211E028
:100E1300EF7002C322900003E0FCA3E0FDA3E0FE19
:100E2300A3E0FF1219CE1202E090000C1206B07F6D
:100E3300911218417F13121841300039E4900013C6
:100E4300F0A3F0900013E0FEA3E0FFC39406EE646A
:100E5300809480501A749F2FF582741B1216609031
:100E63000014E004F070DC900013E004F080D490F0
:100E73000007E014F0900007E0FF900011E4F0A3F6
:100E8300EFF0900011E0FEA3E0FFC3EE64809480D6
:100E93004079900019EEF0A3EFF07F0A7E007D0009
:100EA3007C00121480A804A905AA06AB0790000CC5
:100EB300E0FCA3E0FDA3E0FEA3E0FF12190DE47B39
:100EC3000AFAF9F812190DEB2430900010F0E490AF
:100ED3000013F0A3F0900013E0FEA3E0FFC3940619
:100EE300EE648094805013121647900014E004F0CF
:100EF30070E3900013E004F080DB900012E024FF25
:100F0300F0900011E034FFF0020E85900003E0FC46
:100F1300A3E0FDA3E0FEA3E0FF12170340030210CA
:100F230004900003E0FCA3E0FDA3E0FEA3E0FF12B6
:100F330019CE9000081206B0E4900013F0A3F090CD
:100F43000013E0FEA3E0FFC39406EE648094805098
:100F53001A74A52FF582741B121660900014E00416
:100F6300F070DC900013E004F080D4E4900011F002
:100F7300A3F0900011E0FEA3E0FFC39402EE6480AF
:100F83009480507DEF2401FFE43E900019F0A3EF1D
:100F9300F07F0A7E007D007C00121480EC1202A216
:100FA300900008E0F8A3E0F9A3E0FAA3E0FB120144
:100FB3001E1202E0E47B0AFAF9F812190DEB243051
:100FC300900010F0E4900013F0A3F0900013E0FE03
:100FD300A3E0FFC39406EE64809480501312164777
:100FE300900014E004F070E3900013E004F080DB61
:100FF300900012E004F07006900011E004F0020F7C
:1010030075121ACE7F92121841D322900000EEF08F
:10101300A3EFF0A3EDF0A3EBF0A3EAF0A3E9F090C4
:101023000003E0FBA3E0FAA3E0F91205B3700302A7
:10103300110B900000E0FEA3E0FFC374229FFF7436
:10104300019EFE7C007D0612061DEF2401FFE43E97
:10105300900008F0A3EFF0900003A3A3E0121AFCA2
:10106300900006EEF0A3EFF0C3900009E09F90001C
:1010730008E09E5002C322900000E0FEA3E0FFA31D
:10108300E0FD900006E0FAA3E0FB1211E07F91126D
:1010930018417F13121841E490000AF090000AE00F
:1010A300FFD3900007E09F900006E09400404FE4D8
:1010B30090000BF090000BE0FFC3940650389000B3
:1010C30003E0FBA3E0FAA3E0F990000AE0F58275E0
:1010D30083001205CC75F006A42491F582E5F03463
:1010E3001AF583E5822FF582E435831216619000A9
:1010F3000BE004F080BE90000AE004F0809E121A18
:10110300CE7F92121841D322C322E4900059F0C239
:10111300A0D2A1D2A2D2A3D2A4C2A5C2A6C2A77FA3
:101123000AFE120003900058E5A0F0D2A5D2A6D281
:10113300A7C2A1C2A2C2A3C2A47F0A7E0012000357
:10114300AFA0900058E04F12070D11CC6E11B57689
:10115300119D7A11857C11C5AE11ADB61195BA11E9
:101163007DBC11BDCE11A5D6118DDA1175DC000041
:1011730011D49000597401F0805D9000597402F00D
:1011830080559000597403F0804D9000597404F019
:1011930080459000597405F0803D9000597406F025
:1011A30080359000597407F0802D9000597408F031
:1011B30080259000597409F0801D900059740BF03C
:1011C3008015E4900059F0800E900059740CF08063
:1011D3000690005974FFF0900059E0FF229000152B
:1011E300EEF0A3EFF0A3EDF0A3EAF0A3EBF07F9012
:1011F300121841900017E0FFC394004013EFD394FB
:101203000F500DEF1217B0900017E01217B08003C4
:101213007F0022900015E0FAA3E0FBC3EA940040AC
:1012230075900019E024FFFF900018E034FFFE7C66
:10123300007D0612060BEB2FFFEA3EFED3EF94224E
:10124300EE94015051900015E05401FF1217B6902F
:101253000015A3E0FF1217B6900018E0FEA3E0FF0D
:101263007C007D0612060BEF24FFFFEE34FFFE9099
:101273000016E02F900015E03E5401FF1217B690C0
:101283000018A3E075F006A414FF900015A3E02F47
:10129300FF1217B680037F00227F011217B67F016A
:1012A3007E001200037F0122D2927F647E0012002F
:1012B30003C2927F647E00120003D2927FAE1218A3
:1012C300857F021218857F101218857F40121885BA
:1012D3007F811218857FCF1218857FA11218857F11
:1012E300C81218857FA61218857FA81218857F3F1C
:1012F3001218857FD3121885E4FF1218857FD51243
:1013030018857F801218857FD91218857FF11218EE
:10131300857FDA1218857F121218857FDB121885F4
:101323007F401218857F201218857F021218857F4F
:101333008D1218857F141218857FA41218857FA635
:101343001218857FAF1218857FAF121885121951B5
:10135300E4FDFF021A0790001CEFF0A3EDF0A3EBEE
:10136300F0A3EAF0A3E9F0E4A3F0A3F0A3F0900064
:101373001EE0FBA3E0FAA3E0F9900023E0F58275F9
:1013830083001205CC606924E0900021F090001CDA
:10139300E0D394784006E4F0A3E004F090001CE06E
:1013A300FFA3E0FD121A07E4900022F0900022E070
:1013B300FFC39406502A900021E075F006A424513F
:1013C300F582E5F0341BF583E5822FF582E435835E
:1013D300F583E493FF1218C9900022E004F080CC57
:1013E30090001CE02406F0900023E004F002137147
:1013F30022900053EDF0A3EAF0A3EBF0900052EF3C
:10140300F07029900053E0D394004070C294A3E09D
:10141300FEA3E0FF120003D294900054E0FEA3E089
:10142300FF120003900053E014F080D7900052E0C5
:10143300B40129900053E0D394004040C295A3E047
:10144300FEA3E0FF120003D295900054E0FEA3E058
:10145300FF120003900053E014F080D7C294C295AA
:10146300900054E0FEA3E0FF120003D294D29590C3
:101473000054E0FEA3E0FF12000380E02290001579
:101483001206B090001D1206BC0000000190001966
:10149300E0FAA3E0FB4A70067F01FEFDFC22900008
:1014A3001BEAF0A3EBF0D390001CE0940090001B28
:1014B300E064809480403590001DE0FCA3E0FDA330
:1014C300E0FEA3E0FF900015E0F8A3E0F9A3E0FA43
:1014D300A3E0FB12065390001D1206B090001CE01F
:1014E30024FFF090001BE034FFF080BA90001DE071
:1014F300FCA3E0FDA3E0FEA3E0FF2290000274FF43
:10150300F0C2947F10121841E4900000F0A3F09011
:101513000002E0FF1217B6900001E004F07006909D
:101523000000E004F0C3900001E09480900000E02C
:10153300941240DBD294C2957F13121841E49000B9
:1015430000F0A3F0900002E0FF1217B6900001E054
:1015530004F07006900000E004F0C3900001E094F2
:1015630080900000E0941240DBD29522900000EEC0
:10157300F0A3EFF0A3EDF090001F74FFF0A3741B32
:10158300F0A3744CF0900003E0FCA3E0FDA3E0FEA5
:10159300A3E0FF9000221206B07B017A00790712C4
:1015A30008BB900003E0FCA3E0FDA3E0FEA3E0FF83
:1015B30012170340157B017A007907121AFC740491
:1015C3002FF58274003EF583E4F0900000A3E0FF62
:1015D300A3E0FD7B017A00790702135990004CEEDA
:1015E300F0A3EFF0A3EDF0A3EBF07F91121841907D
:1015F300004CE0FEA3E0FFA3E0FD7B017A001211A3
:10160300E0EF7002C3227F13121841E4900050F000
:10161300A3F0900050E0FEA3E0FFC39406EE6480C5
:101623009480501690004F12164A900051E004F037
:1016330070E0900050E004F080D8121ACE7F92122E
:101643001841D322900010E075F006A42491F5828E
:10165300E5F0341AF583E5822FF582E5833EF583C1
:10166300E493F4FF900015EFF0C283D282121B3B88
:10167300E4900016F0C285121B3B900015E0540164
:10168300FF7004C2848002D284121B3BD285900077
:1016930015E0FFC313F0121B3B900016E004F0E0CB
:1016A300C3940840D0D283221217FA1212AB121934
:1016B300519000031206BCC89D0EC0E4FDFFFE124C
:1016C300156F7BFF7A1979907D01E4FF121359128C
:1016D30014FE121ACE7FF47E011200037BFF7A19E7
:1016E30079AD7D01E4FFFE12100E9000031206BCDB
:1016F300C2F70000E4FDFFFE120CD9121A9780FE18
:1017030090001C1206B090001CE0FCA3E0FDA3E0D7
:10171300FEA3E0FF1219CE90001C1206B090001C2D
:10172300E0FCA3E0FDA3E0FEA3E0FF1202E0EC1265
:1017330002A2A804A905AA06AB0790001CE0FCA31B
:10174300E0FDA3E0FEA3E0FF120029E4FBFAF9F8B1
:10175300120224500122C3227F10121841E4900088
:1017630056F0A3F07FFF1217B6900057E004F07015
:1017730006900056E004F0C3900057E09480900078
:1017830056E0941240DE7F13121841E4900056F0A5
:10179300A3F0900057E004F07006900056E004F0C8
:1017A300900056E0B412EBA3E0B480E62233333367
:1017B30054F8FF90001AEFF0C283D282121B3BE46D
:1017C30090001BF0C285121B3B90001AE05480FF6F
:1017D3007004C2848002D284121B3BD28590001A0B
:1017E300E0FF25E0F0121B3B90001BE004F0E0C398
:1017F300940840D0D28322121AB37F061218417F75
:10180300171217B67F171217B67F171217B67F0472
:10181300121841121A57E4FF1218417F171217B614
:101823007F611218417F801217B67F011217B67FAE
:10183300281217B67F501218417F970217B69000EF
:101843001AEFF0C283C282121B3BE490001BF0C26A
:1018530085121B3B90001AE05480FF7004C2848001
:1018630002D284121B3BD28590001AE0FF25E0F0E0
:10187300121B3B90001BE004F0E0C3940840D0D25D
:101883008322900025EFF0C294C293121B3BE49095
:101893000026F0C290121B3B900025E05480FF709D
:1018A30004C2918002D291121B3BD290900025E09A
:1018B300FF25E0F0121B3B900026E004F0E0C39408
:1018C3000840D0D29422900024EFF0C294D2931215
:1018D3001B3BE4900025F0C290121B3B900024E0D8
:1018E3005480FF7004C2918002D291121B3BD290AC
:1018F300900024E0FF25E0F0121B3B900025E0045C
:10190300F0E0C3940840D0D29422C2D5E830E70F68
:10191300B2D5E4C39BFBE49AFAE499F9E498F8ECB2
:1019230030E717B2D51219431207C4E4C39BFBE493
:101933009AFAE499F9E498F880031207C430D50DB4
:10194300E4C39FFFE49EFEE49DFDE49CFC22E4903F
:101953000000F0900000E0FFC39408502FEF24B084
:10196300FF1218857F021218857F10121885E490E4
:101973000001F0E4FF1218C9900001E004F0E0C395
:10198300948040EF900000E004F080C7225468691F
:1019930073206973206D79206E7468204F4C454421
:1019A3002070726F6772616D2E00546869732069CD
:1019B30073206D7920666972737420655061706558
:1019C300722070726F6772616D2E00900020120694
:1019D300B0E4FFFEFDFC900020E0F8A3E0F9A3E0F3
:1019E300FAA3E0FB120224900020E0FC500CA3E0D9
:1019F300FDA3E0FEA3E0FF020291A3E0FDA3E0FE4E
:101A0300A3E0FF22900024EFF0ED24B0FF1218852D
:101A1300900024E0240254F0C4540F4410FF121821
:101A230085900024E02402540FFF021885EFB40AC6
:101A330007740D121A3B740A309811A899B8130C45
:101A4300C2983098FDA899C298B811F63099FDC292
:101A530099F599227F71121841D2807F027E00127C
:101A63000003A280E4337E0020E0027E01AF06EF94
:101A730070E27F96FE0200038F9920990BEF6004BA
:101A8300C29480F6C29580F2EF6004D2948002D2B1
:101A930095C299227F501218417FF71217B67F0221
:101AA300121841121A577F071218417FA50217B661
:101AB300D2817F967E00120003C2817F967E001240
:101AC3000003D2817F967E00020003C294C2957FF9
:101AD300121218417F017E00120003121A57D2948A
:101AE300D29522758920758DFD758BFDD28EC29F8F
:101AF300D29ED29CD2AFD2AC22E4FFFE1205B360D9
:101B03000C0FEF70010E09E970F20A80EF227F8D4E
:101B13001218857F141218857FAF0218857F8D12E6
:101B230018857F101218857FAE021885787FE4F63A
:101B3300D8FD7581210216AB7F05AE071FEE60034A
:101B43000080F722B2A3B28022252E326600000065
:101B5300000000000000002F000000000700070045
:101B630000147F147F1400242A7F2A120062640861
:101B730013230036495522500000050300000000DE
:101B83001C224100000041221C000014083E0814DE
:101B93000008083E0808000000A0600000080808CC
:101BA3000808000060600000002010080402003EE6
:101BB3005149453E0000427F400000426151494681
:101BC300002141454B31001814127F100027454571
:101BD3004539003C4A494930000171090503003683
:101BE3004949493600064949291E00003636000096
:101BF300000056360000000814224100001414149B
:101C03001414000041221408000201510906003295
:101C13004959513E007C1211127C007F49494936D3
:101C2300003E41414122007F4141221C007F49493E
:101C33004941007F09090901003E4149497A007F72
:101C43000808087F0000417F4100002040413F0118
:101C5300007F08142241007F40404040007F020C77
:101C6300027F007F0408107F003E4141413E007F18
:101C730009090906003E4151215E007F09192946E1
:101C83000046494949310001017F0101003F4040BD
:101C9300403F001F2040201F003F4038403F00636B
:101CA300140814630007087008070061514945438D
:101CB30000007F41410000552A552A55000041414B
:101CC3007F00000402010204004040404040000045
:101CD30001020400002054545478007F48444438DF
:101CE30000384444442000384444487F0038545466
:101CF300541800087E0901020018A4A4A47C007FE4
:101D0300080404780000447D4000004080847D0086
:101D1300007F102844000000417F4000007C04182D
:101D23000478007C0804047800384444443800FCF8
:101D3300242424180018242418FC007C0804040814
:101D430000485454542000043F444020003C404089
:101D5300207C001C2040201C003C4030403C0044C0
:101D630028102844001CA0A0A07C004464544C44C8
:101D73000000187E810000817E1800000000FFFF34
:101D83000000081008040810000000000000000014
:101D93000000000000000000000000000000000040
:101DA3000000000000000000000000000000000030
:101DB30000000000000000000000C0F9A4B09992E8
:041DC30082F8809092
:00000001FF
