:1000000002115FD3EF9400EE940040147DE87C036E
:10001000ED1D70011CED4C70F7EF1F70E61E80E3C4
:0100200022BD
:1000230002149B02034CE86480F8E933E83360115F
:100033000460F0ED33EC337009E8FCE9FDEAFEEB14
:10004300FF220460DED3EB9FEA9EE99DE8C2E78CC2
:10005300F0C2F795F0400CE8CCF8E9CDF9EACEFA16
:10006300EBCFFB12031785D0F05804700320D5B3F0
:10007300E80470075002B2D502035692D5EC04602F
:10008300F7E4CCC0E0C398F8603B94186008400DD7
:10009300D0E0FB02032EE4FBFAC9FC8028E830E43D
:1000A30006E4C9FBE4CAFCE830E305E4C9CACBFCB7
:1000B300E854076010F8C3E913F9EA13FAEB13FBEA
:1000C300EC13FCD8F130F52FC3E49CFCEF9BFFEE5F
:1000D3009AFEED99FDD0E0FBEF4E4D4C701222DB02
:1000E30003020353EC2CFCEF33FFEE33FEED33FD41
:1000F300ED30E7EB02032EEF2BFFEE3AFEED39FD79
:10010300D0E0FB50130BBB0003020356ED13FDEECF
:1001130013FEEF13FFEC13FC02032EEC4D6011E80A
:10012300497017ED33EC3304600DE4FCFFFEFD2250
:10013300E933E8330470F802034C120317580460E0
:1001430009E4CC24815006285009020356284003B1
:10015300020353C0E0EB4A7044B98006D0E0FB02CF
:100163000342EF4E701CBD8008EBFFEAFEE9FD8001
:10017300EBE98DF0A4FEE5F0020207E9CDF9EAFE12
:10018300EBFFEF89F0A4FCE5F0CE89F0A42EFFE4A9
:1001930035F0CD89F0A42DFEE435F08067EF4E7085
:1001A30005BD80D780C3EF8BF0A4ACF0EE8BF0A439
:1001B3002CFCE435F0F8EF8AF0A42CE5F038FCE4ED
:1001C30033CB8DF0A42CFCE5F03BF8EE8AF0A42CA5
:1001D300FCE5F038F8E433CF89F0A42CFCE5F038E3
:1001E300CF3400CE89F0A42FFFE5F03EFEE433C9FF
:1001F3008DF0A42EFEE5F039CD8AF0A42FFFE5F0B3
:100203003EFEE43DFD33D0E0FB50070BBB000F0285
:100213000356EC2CFCEF33FFEE33FEED33FD02030C
:100223002E74F8CC6480CCC86480C8F58204604323
:10023300C3EB9FF5F0EA9E42F0E99D42F0E89C454E
:10024300F060305018E5825FFFE582F42B5582FBA6
:1002530050210ABA001D09B90019088016E5825B0E
:10026300FBE582F42F5582FF50090EBE00050DBD3C
:1002730000010CC3EB9FF5F0EA9E42F0E99D42F0CA
:10028300E89C45F06007CC4820E701B3EC22ED334E
:10029300EC33600A047003BD8004ECB2E7FC227502
:1002A300F020800E75F010800575F0087D007E004B
:1002B3007F003392D530D503120798EC334010EF0B
:1002C30033FFEE33FEED33FDEC33FCD5F0ED22E5E9
:1002D300F0247EA2D513CC92E7CDCEFF22EDD2E758
:1002E300CD33EC3392D524814006E4FFFEFDFC229E
:1002F300FCE4CFCECDCC24E0501174FF80EDC3CC11
:1003030013CCCD13CDCE13CECF13CF0470F030D595
:10031300DE020798E9D2E7C933E833F892D5EDD284
:10032300E7CD33EC33FC5002B2D522EC30E7100FAB
:10033300BF000C0EBE00080DBD00040BEB6014A241
:10034300D5EB13FCED92E7FD2274FFFCFDFEFF22CB
:10035300E480F8A2D574FF13FC7D80E480EFF920DC
:10036300E73624F950037907E4F42402FBE5821508
:100373008270021583DBF6E024FB501BE96014E472
:10038300F0E582158270021583E004F0B40A08E4F4
:10039300F0D9EE7401F00A22C2D522ED33EC339288
:1003A300D5FA602AB4FF33EDC2E77BFF60067A0318
:1003B30079C3E4227A0379CC20D5047A0379C7225E
:1003C3004E614E002B494E46002D494E4600E47ABD
:1003D30008F0A3DAFC7B00740722C083C082ECC060
:1003E300E0EDC0E0EEC0E0EFC0E0EA75F010A4CAB3
:1003F300ABF075F04DA42BFBE435F0FCEA2410FAC6
:10040300EB34C5FBEC34D9FCEDC2E7FF75F056A421
:10041300F42411C5F0F434C58FF0A42AE5F03BE4CD
:100423003CF020E714120573D0E0FFD0E0FED0E0EB
:10043300FDD0E0FC1204A68014F404120573D0E08E
:10044300FFD0E0FED0E0FDD0E0FC12011ED082D050
:1004530083E0FAEDD2E7CD33EC332482FBE4C3CF60
:1004630033CFCE33CECD33CD33DBF37B0775F00AF9
:10047300846004F0A31B0AE5F0F0A38FF0740AA4D0
:10048300FFACF08EF0740AA42CFEACF050010C8D7E
:10049300F0740AA42CFDE435F0F0A3DBDE7407222C
:1004A300020356EC5D046005E85904700302034C33
:1004B300120317580460F6EC4860F2EC7004FDFE7A
:1004C300FF22C860DB2481C85009C398600250062C
:1004D3000203539850CAF582E9294B4A7005AB824F
:1004E30002034275F0007C1A7880C3EF9BEE9AED0D
:1004F30099400DC3EF9BFFEE9AFEED99FDE842F0A4
:10050300DC23ACF0D0E0FFD0E0FED0E0FDAB8220F6
:10051300E7101BEB60BAEC2CFCEF33FFEE33FEED80
:1005230033FD02032EE803F830E705C0F075F00051
:10053300EF2FFFEE33FEED33FD40B830E7C280AA64
:100543003F8000004120000042C80000447A0000C0
:10055300461C400047C35000497424004B18968042
:100563004CBEBC205A0E1BCA6753C21C749DC5AE39
:10057300FB60065407601C23231205A1EB5438606B
:100583000912058D12059C12011EECF8EDF9EEFA25
:10059300EFCB22EB12059C80F1543803241C900509
:1005A30043FE93FC0EEE93FD0EEE930ECE93FF22CD
:1005B300E709F608DFFA8046E709F208DFFA803E2A
:1005C30088828C83E709F0A3DFFA8032E309F60817
:1005D300DFFA8078E309F208DFFA807088828C837F
:1005E300E309F0A3DFFA806489828A83E0A3F60833
:1005F300DFFA805889828A83E0A3F208DFFA804C0D
:1006030080D280FA80C680D4806980F280338010E3
:1006130080A680EA809A80A880DA80E280CA80334C
:1006230089828A83ECFAE493A3C8C582C8CCC583C4
:10063300CCF0A3C8C582C8CCC583CCDFE9DEE78094
:100643000D89828A83E493A3F608DFF9ECFAA9F013
:10065300EDFB2289828A83ECFAE0A3C8C582C8CC69
:10066300C583CCF0A3C8C582C8CCC583CCDFEADE82
:10067300E880DB89828A83E493A3F208DFF980CCE4
:1006830088F0EF60010E4E60C388F0ED2402B404DD
:100693000050B9F582EB2402B4040050AF23234584
:1006A300822390060373BB010689828A83E022506A
:1006B30002E722BBFE02E32289828A83E49322BB00
:1006C300010CE58229F582E5833AF583E0225006A1
:1006D300E92582F8E622BBFE06E92582F8E222E557
:1006E3008229F582E5833AF583E49322BB010689E7
:1006F300828A83F0225002F722BBFE01F322EF8DA0
:10070300F0A4A8F0CF8CF0A428CE8DF0A42EFE2266
:10071300C2D5EC30E709B2D5E4C39DFDE49CFCEE01
:1007230030E715B2D5E4C39FFFE49EFE120829C348
:10073300E49DFDE49CFC800312082930D507C3E443
:100743009FFFE49EFE22E88FF0A4CC8BF0A42CFC48
:10075300E98EF0A42CFC8AF0EDA42CFCEA8EF0A424
:10076300CDA8F08BF0A42DCC3825F0FDE98FF0A4B3
:100773002CCD35F0FCEB8EF0A4FEA9F0EB8FF0A4AA
:10078300CFC5F02ECD39FEE43CFCEAA42DCE35F0E6
:10079300FDE43CFC22C3E49FFFE49EFEE49DFDE4F4
:1007A3009CFC22ECF0A3EDF0A3EEF0A3EFF022A863
:1007B300828583F0D083D0821207C91207C912073A
:1007C300C91207C9E473E493A3C583C5F0C583C8FD
:1007D300C582C8F0A3C583C5F0C583C8C582C82236
:1007E300F8E0FBA3A3E0F925F0F0E582158270029F
:1007F3001583E0FA38F022EBF0A3EAF0A3E9F02244
:10080300D083D082F8E4937012740193700DA3A384
:1008130093F8740193F5828883E473740293686098
:10082300EFA3A3A380DFBC000BBE0029EF8DF084F0
:10083300FFADF022E4CCF875F008EF2FFFEE33FEA6
:10084300EC33FCEE9DEC984005FCEE9DFE0FD5F0DD
:10085300E9E4CEFD22EDF8F5F0EE8420D21CFEADE6
:10086300F075F008EF2FFFED33FD4007985006D5E4
:10087300F0F222C398FD0FD5F0EA2275F0087582D5
:1008830000EF2FFFEE33FECD33CDCC33CCC5823317
:10089300C5829BED9AEC99E58298400CF582EE9B1C
:1008A300FEED9AFDEC99FC0FD5F0D6E4CEFBE4CD3A
:1008B300FAE4CCF9A88222B800C1B90059BA002DD4
:1008C300EC8BF084CFCECDFCE5F0CBF97818EF2F8D
:1008D300FFEE33FEED33FDEC33FCEB33FB10D703BC
:1008E300994004EB99FB0FD8E5E4F9FA227818EF65
:1008F3002FFFEE33FEED33FDEC33FCC933C910D7C4
:10090300059BE99A4007EC9BFCE99AF90FD8E0E4D0
:10091300C9FAE4CCFB2275F010EF2FFFEE33FEEDA6
:1009230033FDCC33CCC833C810D7079BEC9AE89976
:10093300400AED9BFDEC9AFCE899F80FD5F0DAE458
:10094300CDFBE4CCFAE4C8F922E5082411F582E4EE
:100953003400F583E005082290000E300703900071
:1009630011E475F0011207E30206A92000E97F2EC6
:10097300D2008018EF540F2490D43440D4FF3004B5
:100983000BEF24BFB41A0050032461FFE509600292
:100993001509050CE50C7002050B30070E90000ECF
:1009A300E475F0011207E3EF0206EF021546740344
:1009B300D2078003E4C207F50890000E1207FAE499
:1009C300F509F50BF50CE50960077F2012098F8007
:1009D300F5750AFFC201C200C202C203C205C20604
:1009E300C20812095BFF700D3007057F001209A0D2
:1009F300AF0CAE0B22B4255FC2D5C20412095BFF54
:100A030024D0B40A00501A75F00A780930D50508C5
:100A1300B6FF0106C6A426F620D5047002D20380D1
:100A2300D924CFB41A00EF5004C2E5D204020C92C9
:100A3300D20180C6D20080C0D20280BCD2D580BA97
:100A4300D20580B47F2012098F2002077401B509F3
:100A53000040F112094CFF12098F0209C9D208D2D2
:100A630006809512094CFB12094CFA12094CF94AFB
:100A73004B700679907A0D7BFF20022EE509602AE0
:100A83007E008E827583001206C260060EEE650A32
:100A930070F0C2D5EBC0E0EAC0E0E9C0E0EE120CB2
:100AA300F3D0E0F9D0E0FAD0E0FB1206A9FF60AA88
:100AB300EBC0E0EAC0E0E9C0E012098FD0E0240116
:100AC300F9D0E03400FAD0E0FBE50A0460DCD50A93
:100AD300D98087D20280A2120CD560F7E50A700193
:100AE30004120361A90A600DE50A600914F50A12EC
:100AF3000D7DEF60F3EA30E702F404C3995079EA1D
:100B0300F4250A0430E701E404F50A800D120CD53C
:100B130060C1EA050A250A120361EA90003DF0303C
:100B2300E701E4250A04D50A0420050114120CF395
:100B3300E4C0E0120D7D90003DE0601320E7071450
:100B4300F0120977802204F0D0E014C0E07F001295
:100B53000977E50A600712096E150A800B30050351
:100B630012096ED0E00209C9D0E00480C4120CD58A
:100B7300609EE50A0412036190003DEAF0E50A2055
:100B830005026001042404120CF374FF04C0E01294
:100B93000D7D120977E50A200502600312096ED064
:100BA300E0B50AE87F4512098190003DE07F2B30D4
:100BB300E7047F2DF404C0E012098FD0E075F00A3A
:100BC30084C0F0120978D0E01209780209C97910BB
:100BD30080027908C206C2088008D2D5790A800447
:100BE300790AC2D5E50A047002F50AE4FAFDFEFFAC
:100BF30012094CFC7B0820011312094CFD7B1030B9
:100C0300000A12094CFE12094CFF7B20EC3382D5FB
:100C130092D55013C3E43000069FFFE49EFEE42008
:100C230001039DFDE49CFCE4CBF8C201EC700CCF06
:100C3300CECDCCE824F8F870F38017C3EF33FFEE82
:100C430033FEED33FDEC33FCEB33FB994002FB0F3A
:100C5300D8E9EB300105F8D0E0C448B201C0E00A9E
:100C6300EC4D4E4F78207B0070C2EAB50A0040BCC1
:100C7300C0E0120CF5D0F0D0E0200104C4C0E0C401
:100C8300B201C0F0120978D0F0D5F0EB0209C91215
:100C930008030A66530BD1580A374C0A33420BD563
:100CA3004F0BDD440BDD490A4C430BE3550B104658
:100CB3000B70450ADA470DB0500A3B2D0A3F2E0A46
:100CC300622B0A43230A60200D992A09FB4800007E
:100CD3000A5AE50AB4FF03750A0612094CFC120905
:100CE3004CFD12094CFE12094CFF90003602039E84
:100CF300790AA2D5200314300509B910020404B9F6
:100D0300080104A2D52006025001042002689202C1
:100D1300B509005034C0E07F203003197F30A202B0
:100D230072067205500F120D4CC202C206C205C2F2
:100D3300087F30800F300503E9C0E012098F3005CA
:100D430003D0E0F9D0E0B509CC3005177F30B910F6
:100D53000C12098F7F583004077F788003B908038A
:100D630012098F3002057F2D02098F7F202008F89A
:100D73007F2B2006F322920280CF7F00B40700501E
:100D83000B2436F582E43400F583E0FF22286E75E8
:100D93006C6C2900D20112094C3001F8C2017809A8
:100DA30030D50108F60209FB2D5043495812094C6E
:100DB3002403B405004001E4900DAB931209807441
:100DC3003A120980D203750904020BD1E4900000A2
:100DD300F0A3F0A3F0A3F078047C007D017BFF7AFD
:100DE3001579B3FE7F0A120683C2A2C2A41210169B
:100DF3007FC87E00120003E4FB7D6B7FD012151DBC
:100E03007F0A7E001200037B077D197FD012151D18
:100E13007F0A7E001200037B067D1A7FD012151D08
:100E23007F0A7E001200037B187D1B7FD012151DE5
:100E33007F0A7E001200037B017D1C7FD012151DEB
:100E43007F647E001200037D757FD01212F67E0050
:100E5300900002EEF0A3EFF090001174FFF0A37482
:100E630015F0A374ACF0A3EEF0A3EFF07B017A00CE
:100E730079041209B17B017A0079047D06E4FF123B
:100E830010C4E4900000F0A3F0D294900001E004B9
:100E9300F07006900000E004F012136F900002EE71
:100EA300F0A3EFF090001174FFF0A37415F0A37496
:100EB300AFF0A3EEF0A3EFF07B017A0079041209FF
:100EC300B17B017A007904E4FDFF1210C41213A16F
:100ED300900002EEF0A3EFF090001174FFF0A37402
:100EE30015F0A374AFF0A3EEF0A3EFF07B017A004B
:100EF30079041209B17B017A007904E4FD7F24129D
:100F030010C41213D3900002EEF0A3EFF09000117F
:100F130074FFF0A37415F0A374AFF0A3EEF0A3EF86
:100F2300F07B017A0079041209B17B017A0079041C
:100F3300E4FD7F481210C4121405900002EEF0A3E2
:100F4300EFF090001174FFF0A37415F0A374AFF0E9
:100F5300A3EEF0A3EFF07B017A0079041209B17BD1
:100F6300017A0079047D01E4FF1210C41214379052
:100F73000002EEF0A3EFF090001174FFF0A37415DC
:100F8300F0A374AFF0A3EEF0A3EFF07B017A007946
:100F9300041209B17B017A0079047D017F241210C8
:100FA300C4121469900002EEF0A3EFF090001174E4
:100FB300FFF0A37415F0A374AFF0A3EEF0A3EFF06A
:100FC3007B017A0079041209B17B017A0079047DEF
:100FD300017F481210C490001174FFF0A37415F040
:100FE300A374AFF0900000E0FFA3E0900014CFF0F3
:100FF300A3EFF07B017A0079041209B17B017A0037
:1010030079047D07E4FF1210C47F0A7E00120003F7
:10101300020E8ED2927F647E00120003C2927F641E
:101023007E00120003D2927FAE1211EB7F021211E7
:10103300EB7F101211EB7F401211EB7F811211EB4A
:101043007FCF1211EB7FA11211EB7FC81211EB7F3F
:10105300A61211EB7FA81211EB7F3F1211EB7FD386
:101063001211EBE4FF1211EB7FD51211EB7F80120B
:1010730011EB7FD91211EB7FF11211EB7FDA121111
:10108300EB7F121211EB7FDB1211EB7F401211EB9E
:101093007F201211EB7F021211EB7F8D1211EB7F78
:1010A300141211EB7FA41211EB7FA61211EB7FAF89
:1010B3001211EB7FAF1211EB1212B7E4FDFF021412
:1010C300F490000EEFF0A3EDF0A3EBF0A3EAF0A38E
:1010D300E9F0E4A3F0A3F0A3F0900010E0FBA3E099
:1010E300FAA3E0F9900015E0F5827583001206C2B9
:1010F300606924E0900013F090000EE0D3947640F2
:1011030006E4F0A3E004F090000EE0FFA3E0FD127C
:1011130014F4E4900014F0900014E0FFC39406501C
:101123002A900013E075F006A424FFF582E5F0345D
:1011330015F583E5822FF582E43583F583E493FF88
:1011430012122F900014E004F080CC90000EE024E3
:1011530006F0900015E004F00210DC22787FE4F63C
:10116300D8FD7581210211A6020DCFE493A3F8E403
:1011730093A34003F68001F208DFF48029E493A3EC
:10118300F85407240CC8C333C4540F4420C8834005
:1011930004F456800146F6DFE4800B0102040810D4
:1011A30020408090156DE47E019360BCA3FF543F03
:1011B30030E509541FFEE493A360010ECF54C0250C
:1011C300E060A840B8E493A3FAE493A3F8E493A3FC
:1011D300C8C582C8CAC583CAF0A3C8C582C8CAC560
:1011E30083CADFE9DEE780BE900017EFF0C294C246
:1011F300931215E7E4900018F0C2901215E79000DF
:1012030017E05480FF7004C2918002D2911215E757
:10121300D290900017E0FF25E0F01215E790001838
:10122300E004F0E0C3940840D0D29422900016EF7B
:10123300F0C294D2931215E7E4900017F0C2901213
:1012430015E7900016E05480FF7004C2918002D22B
:10125300911215E7D290900016E0FF25E0F01215E9
:10126300E7900017E004F0E0C3940840D0D2942242
:10127300C2D5E830E70FB2D5E4C39BFBE49AFAE4A6
:1012830099F9E498F8EC30E717B2D51212A91208CD
:10129300BAE4C39BFBE49AFAE499F9E498F880036F
:1012A3001208BA30D50DE4C39FFFE49EFEE49DFD12
:1012B300E49CFC22E490000EF090000EE0FFC39447
:1012C30008502FEF24B0FF1211EB7F021211EB7FB6
:1012D300101211EBE490000FF0E4FF12122F9000B4
:1012E3000FE004F0E0C3948040EF90000EE004F0C0
:1012F30080C722900010EFF0A3EDF01215BD90000F
:1013030010E0FF1214C9900011E0FF1214C9121566
:10131300BD900010E004FF1214C9121333900012A1
:10132300EFF0D2001215CC1215F3900012E0FF2259
:10133300E4900014F0D2B2900013F0900014E0FF98
:1013430025E0F0D2B3121593900014E0FFA2B2E4AB
:1013530033FEEF4EF0C2B3121593900013E004F086
:10136300E0C3940840D5900014E0FF227D3B7FD07A
:101373001212F690000EE4F0A3EFF0E0F8E4F0E8C8
:1013830090000EF07D3C7FD01212F690000EE0FE2E
:10139300A3E04FFF90000EEEF0FEA3EFF0227D3DA1
:1013A3007FD01212F690000EE4F0A3EFF0E0F8E421
:1013B300F0E890000EF07D3E7FD01212F690000E02
:1013C300E0FEA3E04FFF90000EEEF0FEA3EFF0224D
:1013D3007D3F7FD01212F690000EE4F0A3EFF0E011
:1013E300F8E4F0E890000EF07D407FD01212F69002
:1013F300000EE0FEA3E04FFF90000EEEF0FEA3EF21
:10140300F0227D437FD01212F690000EE4F0A3EF9A
:10141300F0E0F8E4F0E890000EF07D447FD0121283
:10142300F690000EE0FEA3E04FFF90000EEEF0FEFC
:10143300A3EFF0227D457FD01212F690000EE4F068
:10144300A3EFF0E0F8E4F0E890000EF07D467FD0E3
:101453001212F690000EE0FEA3E04FFF90000EEE96
:10146300F0FEA3EFF0227D477FD01212F690000E1C
:10147300E4F0A3EFF0E0F8E4F0E890000EF07D482C
:101483007FD01212F690000EE0FEA3E04FFF900013
:101493000EEEF0FEA3EFF022C0E0C083C082C0D006
:1014A30075D000C00790005CE0FF04F0743E2FF598
:1014B30082E43400F583E599F0C298D007D0D0D008
:1014C30082D083D0E032900013EFF0E4A3F09000D9
:1014D30013E0FF25E0F092B2D2B3121593C2B31218
:1014E3001593900014E004F0E0C3940840E0021563
:1014F300DA900016EFF0ED24B0FF1211EB90001616
:10150300E0240254F0C4540F4410FF1211EB900076
:1015130016E02402540FFF0211EB90000EEFF0A32C
:10152300EDF0A3EBF01215BD90000EE0FF1214C90D
:1015330090000FE0FF1214C9900010E0FF1214C9CD
:101543000215F3EFB40A07740D121551740A30989B
:1015530011A899B8130CC2983098FDA899C298B8ED
:1015630011F63099FDC299F599225E003E00000004
:101573000000000000000000000000000000000068
:10158300000000000000000000000041005C0000BB
:101593000000000000000000000000000000000048
:1015A30000000000000000002225780025366400BA
:1015B30000000000000000000000D2B2D2B31215F8
:1015C30093C2B2121593C2B322A20092B2D2B31243
:1015D3001593C2B3021593D2B3121593A2B2C2B339
:1015E300121593227F01AE071FEE60030080F722DE
:1015F300C2B2D2B3121593D2B20215930000000007
:1016030000000000002F0000000007000700001486
:101613007F147F1400242A7F2A1200626408132394
:1016230000364955225000000503000000001C222B
:101633004100000041221C000014083E0814000869
:10164300083E0808000000A0600000080808080819
:10165300000060600000002010080402003E5149B1
:10166300453E0000427F400000426151494600214F
:1016730041454B31001814127F1000274545453969
:10168300003C4A49493000017109050300364949C4
:10169300493600064949291E00003636000000007D
:1016A30056360000000814224100001414141414C8
:1016B3000000412214080002015109060032495971
:1016C300513E007C1211127C007F49494936003E8D
:1016D30041414122007F4141221C007F4949494148
:1016E300007F09090901003E4149497A007F080842
:1016F300087F0000417F4100002040413F01007FFF
:1017030008142241007F40404040007F020C027FCA
:10171300007F0408107F003E4141413E007F0909DC
:101723000906003E4151215E007F09192946004602
:10173300494949310001017F0101003F4040403FD9
:10174300001F2040201F003F4038403F0063140823
:1017530014630007087008070061514945430000FE
:101763007F41410000552A552A55000041417F0021
:101773000004020102040040404040400000010216
:101783000400002054545478007F484444380038FF
:101793004444442000384444487F00385454541887
:1017A30000087E0901020018A4A4A47C007F080499
:1017B30004780000447D4000004080847D00007F69
:1017C300102844000000417F4000007C0418047886
:1017D300007C0804047800384444443800FC242482
:1017E30024180018242418FC007C0804040800486A
:1017F3005454542000043F444020003C4040207C8B
:10180300001C2040201C003C4030403C0044281079
:101813002844001CA0A0A07C004464544C44000055
:10182300187E810000817E1800000000FFFF000089
:0618330008100804081073
:00000001FF
