:10000000021CCFD3EF9400EE940040147DE87C03F3
:10001000ED1D70011CED4C70F7EF1F70E61E80E3C4
:0200200022328A
:1000230002002102034CE86480F8E933E8336011ED
:100033000460F0ED33EC337009E8FCE9FDEAFEEB14
:10004300FF220460DED3EB9FEA9EE99DE8C2E78CC2
:10005300F0C2F795F0400CE8CCF8E9CDF9EACEFA16
:10006300EBCFFB12031785D0F05804700320D5B3F0
:10007300E80470075002B2D502035692D5EC04602F
:10008300F7E4CCC0E0C398F8603B94186008400DD7
:10009300D0E0FB02032EE4FBFAC9FC8028E830E43D
:1000A30006E4C9FBE4CAFCE830E305E4C9CACBFCB7
:1000B300E854076010F8C3E913F9EA13FAEB13FBEA
:1000C300EC13FCD8F130F52FC3E49CFCEF9BFFEE5F
:1000D3009AFEED99FDD0E0FBEF4E4D4C701222DB02
:1000E30003020353EC2CFCEF33FFEE33FEED33FD41
:1000F300ED30E7EB02032EEF2BFFEE3AFEED39FD79
:10010300D0E0FB50130BBB0003020356ED13FDEECF
:1001130013FEEF13FFEC13FC02032EEC4D6011E80A
:10012300497017ED33EC3304600DE4FCFFFEFD2250
:10013300E933E8330470F802034C120317580460E0
:1001430009E4CC24815006285009020356284003B1
:10015300020353C0E0EB4A7044B98006D0E0FB02CF
:100163000342EF4E701CBD8008EBFFEAFEE9FD8001
:10017300EBE98DF0A4FEE5F0020207E9CDF9EAFE12
:10018300EBFFEF89F0A4FCE5F0CE89F0A42EFFE4A9
:1001930035F0CD89F0A42DFEE435F08067EF4E7085
:1001A30005BD80D780C3EF8BF0A4ACF0EE8BF0A439
:1001B3002CFCE435F0F8EF8AF0A42CE5F038FCE4ED
:1001C30033CB8DF0A42CFCE5F03BF8EE8AF0A42CA5
:1001D300FCE5F038F8E433CF89F0A42CFCE5F038E3
:1001E300CF3400CE89F0A42FFFE5F03EFEE433C9FF
:1001F3008DF0A42EFEE5F039CD8AF0A42FFFE5F0B3
:100203003EFEE43DFD33D0E0FB50070BBB000F0285
:100213000356EC2CFCEF33FFEE33FEED33FD02030C
:100223002E74F8CC6480CCC86480C8F58204604323
:10023300C3EB9FF5F0EA9E42F0E99D42F0E89C454E
:10024300F060305018E5825FFFE582F42B5582FBA6
:1002530050210ABA001D09B90019088016E5825B0E
:10026300FBE582F42F5582FF50090EBE00050DBD3C
:1002730000010CC3EB9FF5F0EA9E42F0E99D42F0CA
:10028300E89C45F06007CC4820E701B3EC22ED334E
:10029300EC33600A047003BD8004ECB2E7FC227502
:1002A300F020800E75F010800575F0087D007E004B
:1002B3007F003392D530D5031206A2EC334010EF02
:1002C30033FFEE33FEED33FDEC33FCD5F0ED22E5E9
:1002D300F0247EA2D513CC92E7CDCEFF22EDD2E758
:1002E300CD33EC3392D524814006E4FFFEFDFC229E
:1002F300FCE4CFCECDCC24E0501174FF80EDC3CC11
:1003030013CCCD13CDCE13CECF13CF0470F030D595
:10031300DE0206A2E9D2E7C933E833F892D5EDD27B
:10032300E7CD33EC33FC5002B2D522EC30E7100FAB
:10033300BF000C0EBE00080DBD00040BEB6014A241
:10034300D5EB13FCED92E7FD2274FFFCFDFEFF22CB
:10035300E480F8A2D574FF13FC7D80E480EFF920DC
:10036300E73624F950037907E4F42402FBE5821508
:100373008270021583DBF6E024FB501BE96014E472
:10038300F0E582158270021583E004F0B40A08E4F4
:10039300F0D9EE7401F00A22C2D522ED33EC339288
:1003A300D5FA602AB4FF33EDC2E77BFF60067A0318
:1003B30079C3E4227A0379CC20D5047A0379C7225E
:1003C3004E614E002B494E46002D494E4600E47ABD
:1003D30008F0A3DAFC7B00740722C083C082ECC060
:1003E300E0EDC0E0EEC0E0EFC0E0EA75F010A4CAB3
:1003F300ABF075F04DA42BFBE435F0FCEA2410FAC6
:10040300EB34C5FBEC34D9FCEDC2E7FF75F056A421
:10041300F42411C5F0F434C58FF0A42AE5F03BE4CD
:100423003CF020E714120573D0E0FFD0E0FED0E0EB
:10043300FDD0E0FC1204A68014F404120573D0E08E
:10044300FFD0E0FED0E0FDD0E0FC12011ED082D050
:1004530083E0FAEDD2E7CD33EC332482FBE4C3CF60
:1004630033CFCE33CECD33CD33DBF37B0775F00AF9
:10047300846004F0A31B0AE5F0F0A38FF0740AA4D0
:10048300FFACF08EF0740AA42CFEACF050010C8D7E
:10049300F0740AA42CFDE435F0F0A3DBDE7407222C
:1004A300020356EC5D046005E85904700302034C33
:1004B300120317580460F6EC4860F2EC7004FDFE7A
:1004C300FF22C860DB2481C85009C398600250062C
:1004D3000203539850CAF582E9294B4A7005AB824F
:1004E30002034275F0007C1A7880C3EF9BEE9AED0D
:1004F30099400DC3EF9BFFEE9AFEED99FDE842F0A4
:10050300DC23ACF0D0E0FFD0E0FED0E0FDAB8220F6
:10051300E7101BEB60BAEC2CFCEF33FFEE33FEED80
:1005230033FD02032EE803F830E705C0F075F00051
:10053300EF2FFFEE33FEED33FD40B830E7C280AA64
:100543003F8000004120000042C80000447A0000C0
:10055300461C400047C35000497424004B18968042
:100563004CBEBC205A0E1BCA6753C21C749DC5AE39
:10057300FB60065407601C23231205A1EB5438606B
:100583000912058D12059C12011EECF8EDF9EEFA25
:10059300EFCB22EB12059C80F1543803241C900509
:1005A30043FE93FC0EEE93FD0EEE930ECE93FF22CD
:1005B300BB010689828A83E0225002E722BBFE0246
:1005C300E32289828A83E49322BB010CE58229F525
:1005D30082E5833AF583E0225006E92582F8E62294
:1005E300BBFE06E92582F8E222E58229F582E5834E
:1005F3003AF583E49322BB010689828A83F0225071
:1006030002F722BBFE01F322EF8DF0A4A8F0CF8CFA
:10061300F0A428CE8DF0A42EFE22C2D5EC30E7093B
:10062300B2D5E4C39DFDE49CFCEE30E715B2D5E4FE
:10063300C39FFFE49EFE120733C3E49DFDE49CFCCD
:10064300800312073330D507C3E49FFFE49EFE22E5
:10065300E88FF0A4CC8BF0A42CFCE98EF0A42CFC46
:100663008AF0EDA42CFCEA8EF0A4CDA8F08BF0A4C4
:100673002DCC3825F0FDE98FF0A42CCD35F0FCEB23
:100683008EF0A4FEA9F0EB8FF0A4CFC5F02ECD39E8
:10069300FEE43CFCEAA42DCE35F0FDE43CFC22C391
:1006A300E49FFFE49EFEE49DFDE49CFC22ECF0A3AA
:1006B300EDF0A3EEF0A3EFF022A8828583F0D083C0
:1006C300D0821206D31206D31206D31206D3E473D2
:1006D300E493A3C583C5F0C583C8C582C8F0A3C589
:1006E30083C5F0C583C8C582C822F8E0FBA3A3E095
:1006F300F925F0F0E582158270021583E0FA38F0EF
:1007030022EBF0A3EAF0A3E9F022D083D082F8E44D
:10071300937012740193700DA3A393F8740193F56E
:10072300828883E4737402936860EFA3A3A380DFDA
:10073300BC000BBE0029EF8DF084FFADF022E4CCAA
:10074300F875F008EF2FFFEE33FEEC33FCEE9DEC73
:10075300984005FCEE9DFE0FD5F0E9E4CEFD22EDB9
:10076300F8F5F0EE8420D21CFEADF075F008EF2F03
:10077300FFED33FD4007985006D5F0F222C398FDF4
:100783000FD5F0EA2275F008758200EF2FFFEE33E4
:10079300FECD33CDCC33CCC58233C5829BED9AECF1
:1007A30099E58298400CF582EE9BFEED9AFDEC995B
:1007B300FC0FD5F0D6E4CEFBE4CDFAE4CCF9A88265
:1007C30022B800C1B90059BA002DEC8BF084CFCE0A
:1007D300CDFCE5F0CBF97818EF2FFFEE33FEED33C8
:1007E300FDEC33FCEB33FB10D703994004EB99FB8F
:1007F3000FD8E5E4F9FA227818EF2FFFEE33FEED78
:1008030033FDEC33FCC933C910D7059BE99A400784
:10081300EC9BFCE99AF90FD8E0E4C9FAE4CCFB229B
:1008230075F010EF2FFFEE33FEED33FDCC33CCC864
:1008330033C810D7079BEC9AE899400AED9BFDEC6F
:100843009AFCE899F80FD5F0DAE4CDFBE4CCFAE4AE
:10085300C8F922E5082403F582E43400F583E005B2
:100863000822900000300703900003E475F00112A2
:1008730006ED0205B32000E97F2ED2008018EF5465
:100883000F2490D43440D4FF30040BEF24BFB41AA8
:100893000050032461FFE50960021509050CE50C0E
:1008A3007002050B30070E900000E475F00112068C
:1008B300EDEF0205F9021BD07403D2078003E4C2F3
:1008C30007F508900000120704E4F509F50BF50C91
:1008D300E50960077F2012089980F5750AFFC201B8
:1008E300C200C202C203C205C206C208120865FFE3
:1008F300700D3007057F001208AAAF0CAE0B22B4AF
:10090300255FC2D5C204120865FF24D0B40A005083
:100913001A75F00A780930D50508B6FF0106C6A492
:1009230026F620D5047002D20380D924CFB41A004E
:10093300EF5004C2E5D204020B9CD20180C6D20060
:1009430080C0D20280BCD2D580BAD20580B47F20C9
:100953001208992002077401B5090040F1120856E4
:10096300FF1208990208D3D208D2068095120856BE
:10097300FB120856FA120856F94A4B7006799A7A0E
:100983000C7BFF20022EE509602A7E008E82758390
:10099300001205CC60060EEE650A70F0C2D5EBC0FE
:1009A300E0EAC0E0E9C0E0EE120BFDD0E0F9D0E0F0
:1009B300FAD0E0FB1205B3FF60AAEBC0E0EAC0E0A7
:1009C300E9C0E0120899D0E02401F9D0E03400FA3C
:1009D300D0E0FBE50A0460DCD50AD98087D2028027
:1009E300A2120BDF60F7E50A700104120361A90A82
:1009F300600DE50A600914F50A120C87EF60F3EA4B
:100A030030E702F404C3995079EAF4250A0430E785
:100A130001E404F50A800D120BDF60C1EA050A2523
:100A23000A120361EA90002FF030E701E4250A047B
:100A3300D50A0420050114120BFDE4C0E0120C8753
:100A430090002FE0601320E70714F0120881802242
:100A530004F0D0E014C0E07F00120881E50A6007CB
:100A6300120878150A800B300503120878D0E002CB
:100A730008D3D0E00480C4120BDF609EE50A0412A1
:100A8300036190002FEAF0E50A20050260010424C7
:100A930004120BFD74FF04C0E0120C87120881E5F9
:100AA3000A2005026003120878D0E0B50AE87F4502
:100AB30012088B90002FE07F2B30E7047F2DF40486
:100AC300C0E0120899D0E075F00A84C0F0120882E1
:100AD300D0E01208820208D3791080027908C20696
:100AE300C2088008D2D5790A8004790AC2D5E50AFA
:100AF300047002F50AE4FAFDFEFF120856FC7B08B7
:100B0300200113120856FD7B1030000A120856FE0E
:100B1300120856FF7B20EC3382D592D55013C3E4E1
:100B23003000069FFFE49EFEE42001039DFDE49C4C
:100B3300FCE4CBF8C201EC700CCFCECDCCE824F8AA
:100B4300F870F38017C3EF33FFEE33FEED33FDECA4
:100B530033FCEB33FB994002FB0FD8E9EB30010583
:100B6300F8D0E0C448B201C0E00AEC4D4E4F782003
:100B73007B0070C2EAB50A0040BCC0E0120BFFD094
:100B8300F0D0E0200104C4C0E0C4B201C0F01208F8
:100B930082D0F0D5F0EB0208D312070D0970530A87
:100BA300DB5809414C093D420ADF4F0AE7440AE793
:100BB300490956430AED550A1A460A7A4509E44794
:100BC3000CBA5009452D09492E096C2B094D2309EF
:100BD3006A200CA32A09054800000964E50AB4FF4A
:100BE30003750A06120856FC120856FD120856FE33
:100BF300120856FF90002802039E790AA2D520030B
:100C030014300509B910020404B9080104A2D5205F
:100C130006025001042002689202B509005034C054
:100C2300E07F203003197F30A20272067205500F55
:100C3300120C56C202C206C205C2087F30800F30B2
:100C43000503E9C0E0120899300503D0E0F9D0E0CC
:100C5300B509CC3005177F30B9100C1208997F58AD
:100C63003004077F788003B908031208993002051E
:100C73007F2D0208997F202008F87F2B2006F3227E
:100C8300920280CF7F00B40700500B2428F582E442
:100C93003400F583E0FF22286E756C6C2900D201C5
:100CA3001208563001F8C201780930D50108F6025E
:100CB30009052D504349581208562403B405004032
:100CC30001E4900CB59312088A743A12088AD2038D
:100CD300750904020ADB900030EEF0A3EFF0A3EDF8
:100CE300F0E4900037F0900033E0FCA3E0FDA3E0D4
:100CF300FEA3E0FF9000381206B0900033E0FCA39F
:100D0300E0FDA3E0FEA3E0FF121B6E1202E09000E1
:100D13003C1206B0C209E4FFFEFDFC900033E0F88C
:100D2300A3E0F9A3E0FAA3E0FB1202245002D209E4
:100D3300E4FFFEFDFC900033E0F8A3E0F9A3E0FA42
:100D4300A3E0FB1202247006900037F0803A900073
:100D53003CE0FCA3E0FDA3E0FEA3E0FFEC4D4E4F1F
:100D6300601D90003CA3A3A3E47B0AFAF9F8121ACE
:100D7300A890003C1206B0900037E004F080CF202A
:100D83000906900037E014F0900033E0FCA3E0FD87
:100D9300A3E0FEA3E0FF12189E503D900037E0FB56
:100DA3007A007C007D06FF7E0012060BC3740B9F46
:100DB300FD74019EFC900030E0FEA3E0FFD39DEEA6
:100DC3009C400122900032E0FDEB2404FBE43AFA5C
:100DD300121344EF703FC322900037E0FB7A007C8C
:100DE300007D06FF7E0012060BC3741D9FFD740178
:100DF3009EFC900030E0FEA3E0FFD39DEE9C4001FB
:100E030022900032E0FDEB2401FBE43AFA12134492
:100E1300EF7002C322900033E0FCA3E0FDA3E0FEE9
:100E2300A3E0FF121B6E1202E090003C1206B07F9B
:100E3300911219DC7F131219DC300939E490004355
:100E4300F0A3F0900043E0FEA3E0FFC39406EE643A
:100E5300809480501A743F2FF582741D121853909A
:100E63000044E004F070DC900043E004F080D49090
:100E73000037E014F0900037E0FF900041E4F0A366
:100E8300EFF0900041E0FEA3E0FFC3EE64809480A6
:100E93004079900049EEF0A3EFF07F0A7E007D00D9
:100EA3007C00121673A804A905AA06AB0790003CA0
:100EB300E0FCA3E0FDA3E0FEA3E0FF121AA8E47B9D
:100EC3000AFAF9F8121AA8EB2430900040F0E490E3
:100ED3000043F0A3F0900043E0FEA3E0FFC39406B9
:100EE300EE64809480501312183A900044E004F0AA
:100EF30070E3900043E004F080DB900042E024FFC5
:100F0300F0900041E034FFF0020E85900033E0FCE6
:100F1300A3E0FDA3E0FEA3E0FF12189E400302102E
:100F230004900033E0FCA3E0FDA3E0FEA3E0FF1286
:100F33001B6E9000381206B0E4900043F0A3F090CB
:100F43000043E0FEA3E0FFC39406EE648094805068
:100F53001A74452FF582741D121853900044E0044F
:100F6300F070DC900043E004F080D4E4900041F0A2
:100F7300A3F0900041E0FEA3E0FFC39402EE64807F
:100F83009480507DEF2401FFE43E900049F0A3EFED
:100F9300F07F0A7E007D007C00121673EC1202A221
:100FA300900038E0F8A3E0F9A3E0FAA3E0FB120114
:100FB3001E1202E0E47B0AFAF9F8121AA8EB2430B5
:100FC300900040F0E4900043F0A3F0900043E0FE73
:100FD300A3E0FFC39406EE64809480501312183A82
:100FE300900044E004F070E3900043E004F080DB01
:100FF300900042E004F07006900041E004F0020F1C
:1010030075121C6E7F921219DCD322900030EEF021
:10101300A3EFF0A3EDF0A3EBF0A3EAF0A3E9F090C4
:101023000033A3E0FAA3E04A700CC3900030E094CD
:10103300004003021170900030E0FAA3E0FBFFC30D
:1010430074229FFF74019AFE7C007D0612061DEF39
:101053002401FFE43E900038F0A3EFF0C209D3EB84
:101063009422EA94014006900032E004F0900032AA
:10107300E0FFC394004006EFD3940F4002C32290D5
:101083000033E0FBA3E0FAA3E0F9121C9C900036C6
:10109300EEF0A3EFF0A3E0FCA3E0FDC39FEC9E50B2
:1010A3000AA3ECF0A3EDF0D209800F900036E0FF25
:1010B300A3E090003ACFF0A3EFF0900030E0FEA35E
:1010C300E0FFA3E090003A12133E7F911219DC7FF8
:1010D300131219DCE490003CF090003CE0FFD39045
:1010E300003BE09F90003AE09400404FE490003DC5
:1010F300F090003DE0FFC394065038900033E0FBCE
:10110300A3E0FAA3E0F990003CE0F58275830012B6
:1011130005CC75F006A42431F582E5F0341CF58383
:10112300E5822FF582E4358312185490003DE004E4
:10113300F080BE90003CE004F0809E121C6E7F9213
:101143001219DC200902D322900032E004FDA3E04F
:10115300FBA3E0FAA3E0F990003AE0FEA3E0FFE985
:101163002FF9EA3EFAE4FFFE12100ED322C32290B7
:101173000030EEF0A3EFF0A3EDF0A3EBF0A3EAF061
:10118300A3E9F0900033E0FBA3E0FAA3E0F9120532
:10119300B37003021269900030E0FEA3E0FFC37452
:1011A300229FFF74019EFE7C007D0612061DEF2424
:1011B30001FFE43E900038F0A3EFF0900033A3A3C7
:1011C300E0121C9C900036EEF0A3EFF0C3900039C0
:1011D300E09F900038E09E5002C322900030E0FE72
:1011E300A3E0FFA3E090003612133E7F911219DCB7
:1011F3007F131219DCE490003AF090003AE0FFD339
:10120300900037E09F900036E09400404FE4900058
:101213003BF090003BE0FFC394065038900033E06E
:10122300FBA3E0FAA3E0F990003AE0F582758300AE
:101233001205CC75F006A42431F582E5F0341CF5D3
:1012430083E5822FF582E4358312185490003BE046
:1012530004F080BE90003AE004F0809E121C6E7F82
:10126300921219DCD322C322E4900088F0C2A0D2E8
:10127300A1D2A2D2A3D2A4C2A5C2A6C2A77F0AFEAC
:10128300120003900087E5A0F0D2A5D2A6D2A7C290
:10129300A1C2A2C2A3C2A47F0A7E00120003AFA010
:1012A300900087E04F12070D132A6E13137612FB7B
:1012B3007A12E37C1323AE130BB612F3BA12DBBC20
:1012C300131BCE1303D612EBDA12D3DC0000133256
:1012D3009000887401F0805D9000887402F080555E
:1012E3009000887403F0804D9000887404F080456A
:1012F3009000887405F0803D9000887406F0803576
:101303009000887407F0802D9000887408F0802581
:101313009000887409F0801D900088740BF080158C
:10132300E4900088F0800E900088740CF0800690A2
:10133300008874FFF0900088E0FF22FDE0FAA3E04C
:10134300FB900045EEF0A3EFF0A3EDF0A3EAF0A3CA
:10135300EBF07F901219DC900047E0FFC39400404C
:1013630013EFD3940F500DEF12194B900047E01277
:10137300194B80037F0022900045E0FAA3E0FBC3F2
:10138300EA94004075900049E024FFFF900048E094
:1013930034FFFE7C007D0612060BEB2FFFEA3EFEB8
:1013A300D3EF9422EE94015051900045E05401FF95
:1013B300121951900045A3E0FF121951900048E023
:1013C300FEA3E0FF7C007D0612060BEF24FFFFEE79
:1013D30034FFFE900046E02F900045E03E5401FFAD
:1013E300121951900048A3E075F006A414FF900071
:1013F30045A3E02FFF12195180037F00227F0112C2
:1014030019517F017E001200037F0122D2927F6473
:101413007E00120003C2927F647E00120003D29208
:101423007FAE121A207F02121A207F10121A207F19
:1014330040121A207F81121A207FCF121A207FA117
:10144300121A207FC8121A207FA6121A207FA81210
:101453001A207F3F121A207FD3121A20E4FF121A98
:10146300207FD5121A207F80121A207FD9121A20CA
:101473007FF1121A207FDA121A207F12121A207FAC
:10148300DB121A207F40121A207F20121A207F02BB
:10149300121A207F8D121A207F14121A207FA41291
:1014A3001A207FA6121A207FAF121A207FAF121ABA
:1014B30020121B2FE4FDFF021BA790006DEFF0A38A
:1014C300EDF0A3EBF0A3EAF0A3E9F0E4A3F0A3F0BB
:1014D300A3F090006FE0FBA3E0FAA3E0F99000749F
:1014E300E0F5827583001205CC606924E0900072F8
:1014F300F090006DE0D394784006E4F0A3E004F0AC
:1015030090006DE0FFA3E0FD121BA7E4900073F0D1
:10151300900073E0FFC39406502A900072E075F0C8
:1015230006A424F1F582E5F0341CF583E5822FF55A
:1015330082E43583F583E493FF121A64900073E029
:1015430004F080CC90006DE02406F0900074E00479
:10155300F00214D52254686973206973206D7920D1
:101563006669727374206550617065722070726F62
:101573006772616D2E0054686973206973206D79F9
:101583002066697273742065506170657220707291
:101593006F6772616D2E416E64206E6F7720616C90
:1015A30073646A666F6920616A73696F64666A61EE
:1015B3006F7369206A20616F6973706F69757775DE
:1015C3006A206A32333933323734353938202124AB
:1015D300232523405E206F777169656A66696F64AE
:1015E300616A2E0090007CEDF0A3EAF0A3EBF0908B
:1015F300007BEFF0702990007CE0D394004070C230
:1016030094A3E0FEA3E0FF120003D29490007DE0D8
:10161300FEA3E0FF12000390007CE014F080D7905B
:10162300007BE0B4012990007CE0D394004040C2E9
:1016330095A3E0FEA3E0FF120003D29590007DE0A6
:10164300FEA3E0FF12000390007CE014F080D7C2F9
:1016530094C29590007DE0FEA3E0FF120003D294B4
:10166300D29590007DE0FEA3E0FF12000380E0220C
:101673009000451206B090004D1206BC0000000118
:10168300900049E0FAA3E0FB4A70067F01FEFDFCEF
:101693002290004BEAF0A3EBF0D390004CE09400CF
:1016A30090004BE064809480403590004DE0FCA3B3
:1016B300E0FDA3E0FEA3E0FF900045E0F8A3E0F91E
:1016C300A3E0FAA3E0FB12065390004D1206B0907C
:1016D300004CE024FFF090004BE034FFF080BA9020
:1016E300004DE0FCA3E0FDA3E0FEA3E0FF22900099
:1016F3003274FFF0C2947F101219DCE4900030F0D2
:10170300A3F0900032E0FF121951900031E004F091
:101713007006900030E004F0C3900031E0948090B4
:101723000030E0941240DBD294C2957F131219DC8F
:10173300E4900030F0A3F0900032E0FF12195190D2
:101743000031E004F07006900030E004F0C3900034
:1017530031E09480900030E0941240DBD2952290E7
:101763000051EEF0A3EFF0A3EDF090000374FFF04F
:10177300A3741CF0A374ECF0900054E0FCA3E0FD10
:10178300A3E0FEA3E0FF9000061206B07B017A00FF
:1017930079581208BB900054E0FCA3E0FDA3E0FEDF
:1017A300A3E0FF12189E40157B017A007958121CA2
:1017B3009C74552FF58274003EF583E4F09000513C
:1017C300A3E0FFA3E0FD7B017A0079580214BD90EA
:1017D3000075EEF0A3EFF0A3EDF0A3EBF07F911211
:1017E30019DC900075E0FEA3E0FFA3E0FD7B017A26
:1017F30000121344EF7002C3227F131219DCE4902A
:101803000079F0A3F0900079E0FEA3E0FFC3940613
:10181300EE64809480501690007812183D90007A00
:10182300E004F070E0900079E004F080D8121C6EC0
:101833007F921219DCD322900040E075F006A424B5
:1018430031F582E5F0341CF583E5822FF582E583DB
:101853003EF583E493F4FF900045EFF0C283D28218
:10186300121CDBE4900046F0C285121CDB9000459D
:10187300E05401FF7004C2848002D284121CDBD2C4
:1018830085900045E0FFC313F0121CDB900046E097
:1018930004F0E0C3940840D0D2832290004512069E
:1018A300B0900045E0FCA3E0FDA3E0FEA3E0FF123F
:1018B3001B6E9000451206B0900045E0FCA3E0FDCE
:1018C300A3E0FEA3E0FF1202E0EC1202A2A804A927
:1018D30005AA06AB07900045E0FCA3E0FDA3E0FEEC
:1018E300A3E0FF120029E4FBFAF9F81202245001E5
:1018F30022C3227F101219DCE490007FF0A3F07F53
:10190300FF121951900080E004F0700690007FE010
:1019130004F0C3900080E0948090007FE094124034
:10192300DE7F131219DCE490007FF0A3F0900080B7
:10193300E004F0700690007FE004F090007FE0B4D4
:1019430012EBA3E0B480E62233333354F8FF900064
:101953004AEFF0C283D282121CDBE490004BF0C248
:1019630085121CDB90004AE05480FF7004C284801F
:1019730002D284121CDBD28590004AE0FF25E0F0FE
:10198300121CDB90004BE004F0E0C3940840D0D27B
:101993008322121C537F061219DC7F171219517F01
:1019A300171219517F171219517F041219DC121BD8
:1019B300F7E4FF1219DC7F171219517F611219DC4A
:1019C3007F801219517F011219517F281219517FFB
:1019D300501219DC7F9702195190004AEFF0C2832D
:1019E300C282121CDBE490004BF0C285121CDB9018
:1019F300004AE05480FF7004C2848002D284121C27
:101A0300DBD28590004AE0FF25E0F0121CDB90005A
:101A13004BE004F0E0C3940840D0D28322900081CD
:101A2300EFF0C294C293121CDBE4900082F0C290E8
:101A3300121CDB900081E05480FF7004C29180028D
:101A4300D291121CDBD290900081E0FF25E0F012CE
:101A53001CDB900082E004F0E0C3940840D0D294F1
:101A630022900083EFF0C294D293121CDBE4900027
:101A730084F0C290121CDB900083E05480FF70045A
:101A8300C2918002D291121CDBD290900083E0FFBE
:101A930025E0F0121CDB900084E004F0E0C394081E
:101AA30040D0D29422C2D5E830E70FB2D5E4C39B2D
:101AB300FBE49AFAE499F9E498F8EC30E717B2D525
:101AC300121ADE1207C4E4C39BFBE49AFAE499F901
:101AD300E498F880031207C430D50DE4C39FFFE4F4
:101AE3009EFEE49DFDE49CFC221219951216F11250
:101AF3001C6E7FF47E011200037BFF7A1579587DFB
:101B030001E4FFFE1211727BFF7A1579797D027F62
:101B1300187E0112100E9000331206BCC2F70000AB
:101B2300E4FDFFFE120CD9121C3780FEE490008501
:101B3300F0900085E0FFC39408502FEF24B0FF120C
:101B43001A207F02121A207F10121A20E4900086B6
:101B5300F0E4FF121A64900086E004F0E0C394807E
:101B630040EF900085E004F080C722900049120600
:101B7300B0E4FFFEFDFC900049E0F8A3E0F9A3E028
:101B8300FAA3E0FB120224900049E0FC500CA3E00E
:101B9300FDA3E0FEA3E0FF020291A3E0FDA3E0FEAC
:101BA300A3E0FF22900089EFF0ED24B0FF121A208A
:101BB300900089E0240254F0C4540F4410FF121A19
:101BC30020900089E02402540FFF021A20EFB40A88
:101BD30007740D121BDB740A309811A899B8130C03
:101BE300C2983098FDA899C298B811F63099FDC2F1
:101BF30099F599227F711219DCD2807F027E00123F
:101C03000003A280E4337E0020E0027E01AF06EFF2
:101C130070E27F96FE0200038F9920990BEF600418
:101C2300C29480F6C29580F2EF6004D2948002D20F
:101C330095C299227F501219DC7FF71219517F0246
:101C43001219DC121BF77F071219DC7FA502195149
:101C5300D2817F967E00120003C2817F967E00129E
:101C63000003D2817F967E00020003C294C2957F57
:101C7300121219DC7F017E00120003121BF7D294AB
:101C8300D29522758920758DFD758BFDD28EC29FED
:101C9300D29ED29CD2AFD2AC22E4FFFE1205B36037
:101CA3000C0FEF70010E09E970F20A80EF227F8DAD
:101CB300121A207F14121A207FAF021A207F8D126E
:101CC3001A207F10121A207FAE021A20787FE4F6C2
:101CD300D8FD758121021AEC7F05AE071FEE600364
:101CE3000080F722B2A3B28022252E3266000000C4
:101CF300000000000000002F0000000007000700A4
:101D030000147F147F1400242A7F2A1200626408BF
:101D1300132300364955225000000503000000003C
:101D23001C224100000041221C000014083E08143C
:101D33000008083E0808000000A06000000808082A
:101D43000808000060600000002010080402003E44
:101D53005149453E0000427F4000004261514946DF
:101D6300002141454B31001814127F1000274545CF
:101D73004539003C4A4949300001710905030036E1
:101D83004949493600064949291E000036360000F4
:101D930000005636000000081422410000141414F9
:101DA30014140000412214080002015109060032F4
:101DB3004959513E007C1211127C007F4949493632
:101DC300003E41414122007F4141221C007F49499D
:101DD3004941007F09090901003E4149497A007FD1
:101DE3000808087F0000417F4100002040413F0177
:101DF300007F08142241007F40404040007F020CD6
:101E0300027F007F0408107F003E4141413E007F76
:101E130009090906003E4151215E007F091929463F
:101E23000046494949310001017F0101003F40401B
:101E3300403F001F2040201F003F4038403F0063C9
:101E430014081463000708700807006151494543EB
:101E530000007F41410000552A552A5500004141A9
:101E63007F000004020102040040404040400000A3
:101E730001020400002054545478007F484444383D
:101E830000384444442000384444487F00385454C4
:101E9300541800087E0901020018A4A4A47C007F42
:101EA300080404780000447D4000004080847D00E5
:101EB300007F102844000000417F4000007C04188C
:101EC3000478007C0804047800384444443800FC57
:101ED300242424180018242418FC007C0804040873
:101EE30000485454542000043F444020003C4040E8
:101EF300207C001C2040201C003C4030403C00441F
:101F030028102844001CA0A0A07C004464544C4426
:101F13000000187E810000817E1800000000FFFF92
:101F23000000081008040810000000000000000072
:101F3300000000000000000000000000000000009E
:101F4300000000000000000000000000000000008E
:101F530000000000000000000000C0F9A4B0999246
:041F630082F88090F0
:00000001FF
