:10000000021904D3EF9400EE940040147DE87C03C1
:10001000ED1D70011CED4C70F7EF1F70E61E80E3C4
:0200200022328A
:1000230002002102034CE86480F8E933E8336011ED
:100033000460F0ED33EC337009E8FCE9FDEAFEEB14
:10004300FF220460DED3EB9FEA9EE99DE8C2E78CC2
:10005300F0C2F795F0400CE8CCF8E9CDF9EACEFA16
:10006300EBCFFB12031785D0F05804700320D5B3F0
:10007300E80470075002B2D502035692D5EC04602F
:10008300F7E4CCC0E0C398F8603B94186008400DD7
:10009300D0E0FB02032EE4FBFAC9FC8028E830E43D
:1000A30006E4C9FBE4CAFCE830E305E4C9CACBFCB7
:1000B300E854076010F8C3E913F9EA13FAEB13FBEA
:1000C300EC13FCD8F130F52FC3E49CFCEF9BFFEE5F
:1000D3009AFEED99FDD0E0FBEF4E4D4C701222DB02
:1000E30003020353EC2CFCEF33FFEE33FEED33FD41
:1000F300ED30E7EB02032EEF2BFFEE3AFEED39FD79
:10010300D0E0FB50130BBB0003020356ED13FDEECF
:1001130013FEEF13FFEC13FC02032EEC4D6011E80A
:10012300497017ED33EC3304600DE4FCFFFEFD2250
:10013300E933E8330470F802034C120317580460E0
:1001430009E4CC24815006285009020356284003B1
:10015300020353C0E0EB4A7044B98006D0E0FB02CF
:100163000342EF4E701CBD8008EBFFEAFEE9FD8001
:10017300EBE98DF0A4FEE5F0020207E9CDF9EAFE12
:10018300EBFFEF89F0A4FCE5F0CE89F0A42EFFE4A9
:1001930035F0CD89F0A42DFEE435F08067EF4E7085
:1001A30005BD80D780C3EF8BF0A4ACF0EE8BF0A439
:1001B3002CFCE435F0F8EF8AF0A42CE5F038FCE4ED
:1001C30033CB8DF0A42CFCE5F03BF8EE8AF0A42CA5
:1001D300FCE5F038F8E433CF89F0A42CFCE5F038E3
:1001E300CF3400CE89F0A42FFFE5F03EFEE433C9FF
:1001F3008DF0A42EFEE5F039CD8AF0A42FFFE5F0B3
:100203003EFEE43DFD33D0E0FB50070BBB000F0285
:100213000356EC2CFCEF33FFEE33FEED33FD02030C
:100223002E74F8CC6480CCC86480C8F58204604323
:10023300C3EB9FF5F0EA9E42F0E99D42F0E89C454E
:10024300F060305018E5825FFFE582F42B5582FBA6
:1002530050210ABA001D09B90019088016E5825B0E
:10026300FBE582F42F5582FF50090EBE00050DBD3C
:1002730000010CC3EB9FF5F0EA9E42F0E99D42F0CA
:10028300E89C45F06007CC4820E701B3EC22ED334E
:10029300EC33600A047003BD8004ECB2E7FC227502
:1002A300F020800E75F010800575F0087D007E004B
:1002B3007F003392D530D50312068EEC334010EF16
:1002C30033FFEE33FEED33FDEC33FCD5F0ED22E5E9
:1002D300F0247EA2D513CC92E7CDCEFF22EDD2E758
:1002E300CD33EC3392D524814006E4FFFEFDFC229E
:1002F300FCE4CFCECDCC24E0501174FF80EDC3CC11
:1003030013CCCD13CDCE13CECF13CF0470F030D595
:10031300DE02068EE9D2E7C933E833F892D5EDD28F
:10032300E7CD33EC33FC5002B2D522EC30E7100FAB
:10033300BF000C0EBE00080DBD00040BEB6014A241
:10034300D5EB13FCED92E7FD2274FFFCFDFEFF22CB
:10035300E480F8A2D574FF13FC7D80E480EFF920DC
:10036300E73624F950037907E4F42402FBE5821508
:100373008270021583DBF6E024FB501BE96014E472
:10038300F0E582158270021583E004F0B40A08E4F4
:10039300F0D9EE7401F00A22C2D522ED33EC339288
:1003A300D5FA602AB4FF33EDC2E77BFF60067A0318
:1003B30079C3E4227A0379CC20D5047A0379C7225E
:1003C3004E614E002B494E46002D494E4600E47ABD
:1003D30008F0A3DAFC7B00740722C083C082ECC060
:1003E300E0EDC0E0EEC0E0EFC0E0EA75F010A4CAB3
:1003F300ABF075F04DA42BFBE435F0FCEA2410FAC6
:10040300EB34C5FBEC34D9FCEDC2E7FF75F056A421
:10041300F42411C5F0F434C58FF0A42AE5F03BE4CD
:100423003CF020E714120573D0E0FFD0E0FED0E0EB
:10043300FDD0E0FC1204A68014F404120573D0E08E
:10044300FFD0E0FED0E0FDD0E0FC12011ED082D050
:1004530083E0FAEDD2E7CD33EC332482FBE4C3CF60
:1004630033CFCE33CECD33CD33DBF37B0775F00AF9
:10047300846004F0A31B0AE5F0F0A38FF0740AA4D0
:10048300FFACF08EF0740AA42CFEACF050010C8D7E
:10049300F0740AA42CFDE435F0F0A3DBDE7407222C
:1004A300020356EC5D046005E85904700302034C33
:1004B300120317580460F6EC4860F2EC7004FDFE7A
:1004C300FF22C860DB2481C85009C398600250062C
:1004D3000203539850CAF582E9294B4A7005AB824F
:1004E30002034275F0007C1A7880C3EF9BEE9AED0D
:1004F30099400DC3EF9BFFEE9AFEED99FDE842F0A4
:10050300DC23ACF0D0E0FFD0E0FED0E0FDAB8220F6
:10051300E7101BEB60BAEC2CFCEF33FFEE33FEED80
:1005230033FD02032EE803F830E705C0F075F00051
:10053300EF2FFFEE33FEED33FD40B830E7C280AA64
:100543003F8000004120000042C80000447A0000C0
:10055300461C400047C35000497424004B18968042
:100563004CBEBC205A0E1BCA6753C21C749DC5AE39
:10057300FB60065407601C23231205A1EB5438606B
:100583000912058D12059C12011EECF8EDF9EEFA25
:10059300EFCB22EB12059C80F1543803241C900509
:1005A30043FE93FC0EEE93FD0EEE930ECE93FF22CD
:1005B300BB010689828A83E0225002E722BBFE0246
:1005C300E32289828A83E49322BB010CE58229F525
:1005D30082E5833AF583E0225006E92582F8E62294
:1005E300BBFE06E92582F8E222E58229F582E5834E
:1005F3003AF583E49322BB010689828A83F0225071
:1006030002F722BBFE01F322F8BB010DE58229F5B7
:1006130082E5833AF583E8F0225006E92582C8F69D
:1006230022BBFE05E92582C8F222EF8DF0A4A8F0D3
:10063300CF8CF0A428CE8DF0A42EFE22E88FF0A458
:10064300CC8BF0A42CFCE98EF0A42CFC8AF0EDA456
:100653002CFCEA8EF0A4CDA8F08BF0A42DCC382589
:10066300F0FDE98FF0A42CCD35F0FCEB8EF0A4FE69
:10067300A9F0EB8FF0A4CFC5F02ECD39FEE43CFCFE
:10068300EAA42DCE35F0FDE43CFC22C3E49FFFE455
:100693009EFEE49DFDE49CFC22ECF0A3EDF0A3EEB2
:1006A300F0A3EFF022A8828583F0D083D0821206D4
:1006B300BF1206BF1206BF1206BFE473E493A3C5BD
:1006C30083C5F0C583C8C582C8F0A3C583C5F0C57B
:1006D30083C8C582C822F8E0FBA3A3E0F925F0F0A4
:1006E300E582158270021583E0FA38F022EBF0A35D
:1006F300EAF0A3E9F022D083D082F8E49370127475
:100703000193700DA3A393F8740193F5828883E496
:10071300737402936860EFA3A3A380DF75F0087579
:100723008200EF2FFFEE33FECD33CDCC33CCC58229
:1007330033C5829BED9AEC99E58298400CF582EEE5
:100743009BFEED9AFDEC99FC0FD5F0D6E4CEFBE4CD
:10075300CDFAE4CCF9A88222B800C1B90059BA0095
:100763002DEC8BF084CFCECDFCE5F0CBF97818EFF0
:100773002FFFEE33FEED33FDEC33FCEB33FB10D7F1
:1007830003994004EB99FB0FD8E5E4F9FA227818B2
:10079300EF2FFFEE33FEED33FDEC33FCC933C9100D
:1007A300D7059BE99A4007EC9BFCE99AF90FD8E03F
:1007B300E4C9FAE4CCFB2275F010EF2FFFEE33FE11
:1007C300ED33FDCC33CCC833C810D7079BEC9AE884
:1007D30099400AED9BFDEC9AFCE899F80FD5F0DA05
:1007E300E4CDFBE4CCFAE4C8F922E5082403F5825E
:1007F300E43400F583E005082290000030070390FD
:100803000003E475F0011206D90205B32000E97F65
:100813002ED2008018EF540F2490D43440D4FF30EC
:10082300040BEF24BFB41A0050032461FFE50960F1
:10083300021509050CE50C7002050B30070E90003C
:1008430000E475F0011206D9EF0205F90217F074FE
:1008530003D2078003E4C207F5089000001206F0F4
:10086300E4F509F50BF50CE50960077F2012083064
:1008730080F5750AFFC201C200C202C203C205C2EB
:1008830006C2081207FCFF700D3007057F0012082F
:1008930041AF0CAE0B22B4255FC2D5C2041207FCD4
:1008A300FF24D0B40A00501A75F00A780930D50530
:1008B30008B6FF0106C6A426F620D5047002D203AB
:1008C30080D924CFB41A00EF5004C2E5D204020B3E
:1008D30033D20180C6D20080C0D20280BCD2D58080
:1008E300BAD20580B47F201208302002077401B504
:1008F300090040F11207EDFF12083002086AD2081E
:10090300D20680951207EDFB1207EDFA1207EDF9F7
:100913004A4B700679317A0C7BFF20022EE5096081
:100923002A7E008E827583001205CC60060EEE656A
:100933000A70F0C2D5EBC0E0EAC0E0E9C0E0EE1215
:100943000B94D0E0F9D0E0FAD0E0FB1205B3FF60DE
:10095300AAEBC0E0EAC0E0E9C0E0120830D0E0242E
:1009630001F9D0E03400FAD0E0FBE50A0460DCD5FD
:100973000AD98087D20280A2120B7660F7E50A704B
:100983000104120361A90A600DE50A600914F50A5E
:10099300120C1EEF60F3EA30E702F404C3995079B6
:1009A300EAF4250A0430E701E404F50A800D120B8A
:1009B3007660C1EA050A250A120361EA90002FF066
:1009C30030E701E4250A04D50A0420050114120BBB
:1009D30094E4C0E0120C1E90002FE0601320E707A0
:1009E30014F0120818802204F0D0E014C0E07F0055
:1009F300120818E50A600712080F150A800B300564
:100A03000312080FD0E002086AD0E00480C4120B7E
:100A130076609EE50A0412036190002FEAF0E50A6E
:100A23002005026001042404120B9474FF04C0E047
:100A3300120C1E120818E50A200502600312080FA3
:100A4300D0E0B50AE87F4512082290002FE07F2B03
:100A530030E7047F2DF404C0E0120830D0E075F0D5
:100A63000A84C0F0120819D0E012081902086A7942
:100A73001080027908C206C2088008D2D5790A809C
:100A830004790AC2D5E50A047002F50AE4FAFDFE08
:100A9300FF1207EDFC7B082001131207EDFD7B100D
:100AA30030000A1207EDFE1207EDFF7B20EC3382C4
:100AB300D592D55013C3E43000069FFFE49EFEE4B5
:100AC3002001039DFDE49CFCE4CBF8C201EC700C17
:100AD300CFCECDCCE824F8F870F38017C3EF33FF03
:100AE300EE33FEED33FDEC33FCEB33FB994002FBBD
:100AF3000FD8E9EB300105F8D0E0C448B201C0E0FB
:100B03000AEC4D4E4F78207B0070C2EAB50A0040D4
:100B1300BCC0E0120B96D0F0D0E0200104C4C0E0CA
:100B2300C4B201C0F0120819D0F0D5F0EB02086A84
:100B33001206F90907530A725808D84C08D4420A16
:100B4300764F0A7E440A7E4908ED430A845509B16B
:100B5300460A1145097B470C515008DC2D08E02E4D
:100B630009032B08E4230901200C3A2A089C4800B6
:100B73000008FBE50AB4FF03750A061207EDFC1231
:100B830007EDFD1207EDFE1207EDFF9000280203AB
:100B93009E790AA2D5200314300509B91002040472
:100BA300B9080104A2D5200602500104200268926C
:100BB30002B509005034C0E07F203003197F30A212
:100BC3000272067205500F120BEDC202C206C20575
:100BD300C2087F30800F300503E9C0E012083030CF
:100BE3000503D0E0F9D0E0B509CC3005177F30B963
:100BF300100C1208307F583004077F788003B9083F
:100C0300031208303002057F2D0208307F202008B0
:100C1300F87F2B2006F322920280CF7F00B40700D7
:100C2300500B2428F582E43400F583E0FF22286E7C
:100C3300756C6C2900D2011207ED3001F8C20178FE
:100C43000930D50108F602089C2D50434958120774
:100C5300ED2403B405004001E4900C4C93120821E9
:100C6300743A120821D203750904020A7290003003
:100C7300EEF0A3EFF0A3EDF0E4900037F090003333
:100C8300E0FCA3E0FDA3E0FEA3E0FF900038120622
:100C93009C900033E0FCA3E0FDA3E0FEA3E0FF1281
:100CA30017581202E090003C12069CC209E4FFFEB2
:100CB300FDFC900033E0F8A3E0F9A3E0FAA3E0FB26
:100CC3001202245002D209E4FFFEFDFC900033E03F
:100CD300F8A3E0F9A3E0FAA3E0FB12022470069064
:100CE3000037F0803A90003CE0FCA3E0FDA3E0FE77
:100CF300A3E0FFEC4D4E4F601D90003CA3A3A3E483
:100D03007B0AFAF9F81216D590003C12069C900063
:100D130037E004F080CF200906900037E014F0900C
:100D23000033E0FCA3E0FDA3E0FEA3E0FF12148682
:100D3300503D900037E0FB7A007C007D06FF7E008B
:100D430012062DC3740B9FFD74019EFC900030E0CE
:100D5300FEA3E0FFD39DEE9C400122900032E0FD14
:100D6300EB2404FBE43AFA120FA5EF703FC3229081
:100D73000037E0FB7A007C007D06FF7E0012062D23
:100D8300C3741D9FFD74019EFC900030E0FEA3E040
:100D9300FFD39DEE9C400122900032E0FDEB240145
:100DA300FBE43AFA120FA5EF7002C322900033E07E
:100DB300FCA3E0FDA3E0FEA3E0FF1217581202E03C
:100DC30090003C12069C7F911216097F131216099C
:100DD300300939E4900043F0A3F0900043E0FEA310
:100DE300E0FFC39406EE64809480501A74722FF56A
:100DF30082741912143B900044E004F070DC9000FC
:100E030043E004F080D4900037E014F0900037E022
:100E1300FF900041E4F0A3EFF0900041E0FEA3E077
:100E2300FFC3EE648094804079900059EEF0A3EF05
:100E3300F07F0A7E007D007C001212CBA804A90576
:100E4300AA06AB0790003CE0FCA3E0FDA3E0FEA3F1
:100E5300E0FF1216D5E47B0AFAF9F81216D5EB2453
:100E630030900040F0E4900043F0A3F0900043E0A2
:100E7300FEA3E0FFC39406EE648094805013121423
:100E830022900044E004F070E3900043E004F0801B
:100E9300DB900042E024FFF0900041E034FFF002D9
:100EA3000E1C900033E0FCA3E0FDA3E0FEA3E0FFF3
:100EB3001214864003020F9B900033E0FCA3E0FD75
:100EC300A3E0FEA3E0FF12175890003812069CE43B
:100ED300900043F0A3F0900043E0FEA3E0FFC3942F
:100EE30006EE64809480501A74782FF58274191278
:100EF300143B900044E004F070DC900043E004F005
:100F030080D4E4900041F0A3F0900041E0FEA3E020
:100F1300FFC39402EE64809480507DEF2401FFE4CC
:100F23003E900059F0A3EFF07F0A7E007D007C0025
:100F33001212CBEC1202A2900038E0F8A3E0F9A35E
:100F4300E0FAA3E0FB12011E1202E0E47B0AFAF9C5
:100F5300F81216D5EB2430900040F0E4900043F0F3
:100F6300A3F0900043E0FEA3E0FFC39406EE648089
:100F730094805013121422900044E004F070E39024
:100F83000043E004F080DB900042E004F070069040
:100F93000041E004F0020F0C12188E7F9212160922
:100FA300D322900079EEF0A3EFF0A3EDF0A3EAF0E3
:100FB300A3EBF07F9012160990007BE0FFC394002F
:100FC3004013EFD3940F500DEF12153390007BE0D5
:100FD30012153380037F0022900079E0FAA3E0FB2F
:100FE300C3EA9400407590007DE024FFFF90007CED
:100FF300E034FFFE7C007D0612062DEB2FFFEA3E58
:10100300FED3EF9422EE94015051900079E0540105
:10101300FF121539900079A3E0FF12153990007C77
:10102300E0FEA3E0FF7C007D0612062DEF24FFFF08
:10103300EE34FFFE90007AE02F900079E03E5401F9
:10104300FF12153990007CA3E075F006A414FF90FD
:101053000079A3E02FFF12153980037F00227F015F
:101063001215397F017E001200037F0122D2927F85
:10107300647E00120003C2927F647E00120003D2DA
:10108300927FAE12164D7F0212164D7F1012164D2F
:101093007F4012164D7F8112164D7FCF12164D7F62
:1010A300A112164D7FC812164D7FA612164D7FA8AA
:1010B30012164D7F3F12164D7FD312164DE4FF12C9
:1010C300164D7FD512164D7F8012164D7FD91216FD
:1010D3004D7FF112164D7FDA12164D7F1212164D07
:1010E3007FDB12164D7F4012164D7F2012164D7F67
:1010F3000212164D7F8D12164D7F1412164D7FA4CA
:1011030012164D7FA612164D7FAF12164D7FAF12EA
:10111300164D121719E4FDFF0217C790006BEFF08D
:10112300A3EDF0A3EBF0A3EAF0A3E9F0E4A3F0A3AB
:10113300F0A3F090006DE0FBA3E0FAA3E0F99000C8
:1011430072E0F5827583001205CC606924E090009B
:1011530070F090006BE0D394784006E4F0A3E004D1
:10116300F090006BE0FFA3E0FD1217C7E49000715D
:10117300F0900071E0FFC39406502A900070E07570
:10118300F006A42424F582E5F03419F583E5822FD3
:10119300F582E43583F583E493FF12169190007191
:1011A300E004F080CC90006BE02406F0900072E045
:1011B30004F00211362290007FEDF0A3EAF0A3EBD6
:1011C300F090007EEFF0702990007FE0D394004010
:1011D30070C294A3E0FEA3E0FF120003D294900038
:1011E30080E0FEA3E0FF12000390007FE014F08094
:1011F300D790007EE0B4012990007FE0D3940040B3
:1012030040C295A3E0FEA3E0FF120003D295900035
:1012130080E0FEA3E0FF12000390007FE014F08063
:10122300D7C294C295900080E0FEA3E0FF120003B2
:10123300D294D295900080E0FEA3E0FF12000380D9
:10124300E022900061EEF0A3EFF0A3EDF090000335
:1012530074FFF0A37419F0A37421F0A3747BF090CE
:101263000068E0FBA3E0FAA3E0F9120852900064DF
:10127300E0FCA3E0FDA3E0FEA3E0FF1214869000D0
:1012830068E0FBA3E0FAA3E0F950081218D1EF24B9
:10129300FC80061218D1EF24F9FFEE34FFFE900014
:1012A30068E0FBA3E0FAA3E0F98F828E83E41206E1
:1012B3000B900061A3E0FFA3E0FD900068E0FBA3B7
:1012C300E0FAA3E0F902111E90005512069C90006B
:1012D3005D1206A800000001900059E0FAA3E0FBAC
:1012E3004A70067F01FEFDFC2290005BEAF0A3EB4F
:1012F300F0D390005CE0940090005BE06480948005
:10130300403590005DE0FCA3E0FDA3E0FEA3E0FF19
:10131300900055E0F8A3E0F9A3E0FAA3E0FB12067E
:101323003F90005D12069C90005CE024FFF090006B
:101333005BE034FFF080BA90005DE0FCA3E0FDA326
:10134300E0FEA3E0FF2290005174FFF0C2947F10EF
:10135300121609E490004FF0A3F0900051E0FF1241
:101363001539900050E004F0700690004FE004F04F
:10137300C3900050E0948090004FE0941240DBD281
:1013830094C2957F13121609E490004FF0A3F090D6
:101393000051E0FF121539900050E004F070069000
:1013A300004FE004F0C3900050E0948090004FE0C1
:1013B300941240DBD29522900073EEF0A3EFF0A3DA
:1013C300EDF0A3EBF07F91121609900073E0FEA3FA
:1013D300E0FFA3E0FD7B017A00120FA5EF7002C3CB
:1013E300227F13121609E4900077F0A3F0900077A0
:1013F300E0FEA3E0FFC39406EE6480948050169051
:101403000076121425900078E004F070E0900077E5
:10141300E004F080D812188E7F92121609D322901E
:101423000040E075F006A42464F582E5F03418F575
:1014330083E5822FF582E5833EF583E493F4FF9001
:10144300008AEFF0C283D282121910E490008BF06D
:10145300C28512191090008AE05401FF7004C284FF
:101463008002D284121910D28590008AE0FFC31340
:10147300F012191090008BE004F0E0C3940840D000
:10148300D2832290008612069C900086E0FCA3E0A3
:10149300FDA3E0FEA3E0FF12175890008612069CFE
:1014A300900086E0FCA3E0FDA3E0FEA3E0FF1202B0
:1014B300E0EC1202A2A804A905AA06AB07900086D5
:1014C300E0FCA3E0FDA3E0FEA3E0FF120029E4FBA0
:1014D300FAF9F8120224500122C3227F10121609CE
:1014E300E490008CF0A3F07FFF12153990008DE09B
:1014F30004F0700690008CE004F0C390008DE0943B
:101503008090008CE0941240DE7F13121609E49061
:10151300008CF0A3F090008DE004F0700690008C36
:10152300E004F090008CE0B412EBA3E0B480E62278
:1015330033333354F8FF900052EFF0C283D2821258
:101543001910E4900053F0C285121910900052E074
:101553005480FF7004C2848002D284121910D28591
:10156300900052E0FF25E0F0121910900053E004C0
:10157300F0E0C3940840D0D283221218737F06127E
:1015830016097F171215397F171215397F17121590
:10159300397F04121609121817E4FF1216097F1770
:1015A3001215397F611216097F801215397F0112D6
:1015B30015397F281215397F501216097F970215A6
:1015C3003990004574FDF0A374B4F0A31206A8CAC1
:1015D3004B76E590004B1206A8C2F6666612157D9F
:1015E30012107012171912134912188E7FF47E010C
:1015F3001200037BFF7A1779917D01E4FFFE121835
:10160300BC12185780FE900052EFF0C283C28212C0
:101613001910E4900053F0C285121910900052E0A3
:101623005480FF7004C2848002D284121910D285C0
:10163300900052E0FF25E0F0121910900053E004EF
:10164300F0E0C3940840D0D28322900051EFF0C25F
:1016530094C293121910E4900052F0C29012191020
:10166300900051E05480FF7004C2918002D2911225
:101673001910D290900051E0FF25E0F0121910905C
:101683000052E004F0E0C3940840D0D294229000CA
:1016930051EFF0C294D293121910E4900052F0C2A9
:1016A30090121910900051E05480FF7004C2918091
:1016B30002D291121910D290900051E0FF25E0F070
:1016C300121910900052E004F0E0C3940840D0D205
:1016D3009422C2D5E830E70FB2D5E4C39BFBE49A6A
:1016E300FAE499F9E498F8EC30E717B2D512170B3E
:1016F30012075BE4C39BFBE49AFAE499F9E498F8D4
:10170300800312075B30D50DE4C39FFFE49EFEE424
:101713009DFDE49CFC22E490004FF090004FE0FF1D
:10172300C39408502FEF24B0FF12164D7F021216F8
:101733004D7F1012164DE4900050F0E4FF12169105
:10174300900050E004F0E0C3948040EF90004FE03D
:1017530004F080C72290008212069CE4FFFEFDFC89
:10176300900082E0F8A3E0F9A3E0FAA3E0FB120201
:1017730024900082E0FC500CA3E0FDA3E0FEA3E074
:10178300FF020291A3E0FDA3E0FEA3E0FF2261625A
:1017930063000000000000000000000000000000E3
:1017A3000000000000000000000000000000000036
:1017B3000000000000000000000000000000000026
:1017C3000000000090004FEFF0ED24B0FF12164D23
:1017D30090004FE0240254F0C4540F4410FF12163B
:1017E3004D90004FE02402540FFF02164DEFB40A50
:1017F30007740D1217FB740A309811A899B8130CCB
:10180300C2983098FDA899C298B811F63099FDC2D4
:1018130099F599227F71121609D2807F027E0012F8
:101823000003A280E4337E0020E0027E01AF06EFD6
:1018330070E27F96FE0200038F9920990BEF6004FC
:10184300C29480F6C29580F2EF6004D2948002D2F3
:1018530095C299227F501216097FF71215397F021C
:101863001216091218177F071216097FA5021539D8
:10187300D2817F967E00120003C2817F967E001282
:101883000003D2817F967E00020003C294C2957F3B
:10189300121216097F017E00120003121817D29448
:1018A300D29522758920758DFD758BFDD28EC29FD1
:1018B300D29ED29CD2AFD2AC2290004FEEF0A3EFD7
:1018C300F0A3EDF0A3EBF0A3EAF0A3E9F022E4FF29
:1018D300FE1205B3600C0FEF70010E09E970F20AF6
:1018E30080EF227F8D12164D7F1412164D7FAF02AB
:1018F300164D7F8D12164D7F1012164D7FAE0216B8
:101903004D787FE4F6D8FD7581210215C47F05AEBD
:10191300071FEE60030080F722B2A3B28022256E78
:10192300000000000000000000002F00000000077E
:1019330000070000147F147F1400242A7F2A12005A
:101943006264081323003649552250000005030042
:101953000000001C224100000041221C000014086A
:101963003E08140008083E0808000000A0600000BC
:101973000808080808000060600000002010080440
:1019830002003E5149453E0000427F400000426153
:10199300514946002141454B31001814127F100074
:1019A3002745454539003C4A49493000017109053D
:1019B3000300364949493600064949291E000036C5
:1019C30036000000005636000000081422410000D3
:1019D30014141414140000412214080002015109C4
:1019E3000600324959513E007C1211127C007F4996
:1019F300494936003E41414122007F4141221C00BA
:101A03007F49494941007F09090901003E4149498C
:101A13007A007F0808087F0000417F4100002040D2
:101A2300413F01007F08142241007F4040404000B5
:101A33007F020C027F007F0408107F003E4141417A
:101A43003E007F09090906003E4151215E007F09DE
:101A53001929460046494949310001017F01010026
:101A63003F4040403F001F2040201F003F40384080
:101A73003F006314081463000708700807006151EE
:101A830049454300007F41410000552A552A55002E
:101A93000041417F00000402010204004040404035
:101AA30040000001020400002054545478007F4891
:101AB30044443800384444442000384444487F00B8
:101AC300385454541800087E0901020018A4A4A431
:101AD3007C007F080404780000447D4000004080BF
:101AE300847D00007F102844000000417F400000F7
:101AF3007C04180478007C080404780038444444C7
:101B03003800FC242424180018242418FC007C0822
:101B130004040800485454542000043F4440200067
:101B23003C4040207C001C2040201C003C403040B6
:101B33003C004428102844001CA0A0A07C0044645E
:101B4300544C440000187E810000817E1800000080
:101B530000FFFF0000081008040810C0F9A4B099A2
:051B63009282F8809061
:00000001FF
