:100000000219A3D3EF9400EE940040147DE87C0322
:10001000ED1D70011CED4C70F7EF1F70E61E80E3C4
:0200200022328A
:1000230002002102034CE86480F8E933E8336011ED
:100033000460F0ED33EC337009E8FCE9FDEAFEEB14
:10004300FF220460DED3EB9FEA9EE99DE8C2E78CC2
:10005300F0C2F795F0400CE8CCF8E9CDF9EACEFA16
:10006300EBCFFB12031785D0F05804700320D5B3F0
:10007300E80470075002B2D502035692D5EC04602F
:10008300F7E4CCC0E0C398F8603B94186008400DD7
:10009300D0E0FB02032EE4FBFAC9FC8028E830E43D
:1000A30006E4C9FBE4CAFCE830E305E4C9CACBFCB7
:1000B300E854076010F8C3E913F9EA13FAEB13FBEA
:1000C300EC13FCD8F130F52FC3E49CFCEF9BFFEE5F
:1000D3009AFEED99FDD0E0FBEF4E4D4C701222DB02
:1000E30003020353EC2CFCEF33FFEE33FEED33FD41
:1000F300ED30E7EB02032EEF2BFFEE3AFEED39FD79
:10010300D0E0FB50130BBB0003020356ED13FDEECF
:1001130013FEEF13FFEC13FC02032EEC4D6011E80A
:10012300497017ED33EC3304600DE4FCFFFEFD2250
:10013300E933E8330470F802034C120317580460E0
:1001430009E4CC24815006285009020356284003B1
:10015300020353C0E0EB4A7044B98006D0E0FB02CF
:100163000342EF4E701CBD8008EBFFEAFEE9FD8001
:10017300EBE98DF0A4FEE5F0020207E9CDF9EAFE12
:10018300EBFFEF89F0A4FCE5F0CE89F0A42EFFE4A9
:1001930035F0CD89F0A42DFEE435F08067EF4E7085
:1001A30005BD80D780C3EF8BF0A4ACF0EE8BF0A439
:1001B3002CFCE435F0F8EF8AF0A42CE5F038FCE4ED
:1001C30033CB8DF0A42CFCE5F03BF8EE8AF0A42CA5
:1001D300FCE5F038F8E433CF89F0A42CFCE5F038E3
:1001E300CF3400CE89F0A42FFFE5F03EFEE433C9FF
:1001F3008DF0A42EFEE5F039CD8AF0A42FFFE5F0B3
:100203003EFEE43DFD33D0E0FB50070BBB000F0285
:100213000356EC2CFCEF33FFEE33FEED33FD02030C
:100223002E74F8CC6480CCC86480C8F58204604323
:10023300C3EB9FF5F0EA9E42F0E99D42F0E89C454E
:10024300F060305018E5825FFFE582F42B5582FBA6
:1002530050210ABA001D09B90019088016E5825B0E
:10026300FBE582F42F5582FF50090EBE00050DBD3C
:1002730000010CC3EB9FF5F0EA9E42F0E99D42F0CA
:10028300E89C45F06007CC4820E701B3EC22ED334E
:10029300EC33600A047003BD8004ECB2E7FC227502
:1002A300F020800E75F010800575F0087D007E004B
:1002B3007F003392D530D50312066CEC334010EF38
:1002C30033FFEE33FEED33FDEC33FCD5F0ED22E5E9
:1002D300F0247EA2D513CC92E7CDCEFF22EDD2E758
:1002E300CD33EC3392D524814006E4FFFEFDFC229E
:1002F300FCE4CFCECDCC24E0501174FF80EDC3CC11
:1003030013CCCD13CDCE13CECF13CF0470F030D595
:10031300DE02066CE9D2E7C933E833F892D5EDD2B1
:10032300E7CD33EC33FC5002B2D522EC30E7100FAB
:10033300BF000C0EBE00080DBD00040BEB6014A241
:10034300D5EB13FCED92E7FD2274FFFCFDFEFF22CB
:10035300E480F8A2D574FF13FC7D80E480EFF920DC
:10036300E73624F950037907E4F42402FBE5821508
:100373008270021583DBF6E024FB501BE96014E472
:10038300F0E582158270021583E004F0B40A08E4F4
:10039300F0D9EE7401F00A22C2D522ED33EC339288
:1003A300D5FA602AB4FF33EDC2E77BFF60067A0318
:1003B30079C3E4227A0379CC20D5047A0379C7225E
:1003C3004E614E002B494E46002D494E4600E47ABD
:1003D30008F0A3DAFC7B00740722C083C082ECC060
:1003E300E0EDC0E0EEC0E0EFC0E0EA75F010A4CAB3
:1003F300ABF075F04DA42BFBE435F0FCEA2410FAC6
:10040300EB34C5FBEC34D9FCEDC2E7FF75F056A421
:10041300F42411C5F0F434C58FF0A42AE5F03BE4CD
:100423003CF020E714120573D0E0FFD0E0FED0E0EB
:10043300FDD0E0FC1204A68014F404120573D0E08E
:10044300FFD0E0FED0E0FDD0E0FC12011ED082D050
:1004530083E0FAEDD2E7CD33EC332482FBE4C3CF60
:1004630033CFCE33CECD33CD33DBF37B0775F00AF9
:10047300846004F0A31B0AE5F0F0A38FF0740AA4D0
:10048300FFACF08EF0740AA42CFEACF050010C8D7E
:10049300F0740AA42CFDE435F0F0A3DBDE7407222C
:1004A300020356EC5D046005E85904700302034C33
:1004B300120317580460F6EC4860F2EC7004FDFE7A
:1004C300FF22C860DB2481C85009C398600250062C
:1004D3000203539850CAF582E9294B4A7005AB824F
:1004E30002034275F0007C1A7880C3EF9BEE9AED0D
:1004F30099400DC3EF9BFFEE9AFEED99FDE842F0A4
:10050300DC23ACF0D0E0FFD0E0FED0E0FDAB8220F6
:10051300E7101BEB60BAEC2CFCEF33FFEE33FEED80
:1005230033FD02032EE803F830E705C0F075F00051
:10053300EF2FFFEE33FEED33FD40B830E7C280AA64
:100543003F8000004120000042C80000447A0000C0
:10055300461C400047C35000497424004B18968042
:100563004CBEBC205A0E1BCA6753C21C749DC5AE39
:10057300FB60065407601C23231205A1EB5438606B
:100583000912058D12059C12011EECF8EDF9EEFA25
:10059300EFCB22EB12059C80F1543803241C900509
:1005A30043FE93FC0EEE93FD0EEE930ECE93FF22CD
:1005B300BB010689828A83E0225002E722BBFE0246
:1005C300E32289828A83E49322BB010CE58229F525
:1005D30082E5833AF583E0225006E92582F8E62294
:1005E300BBFE06E92582F8E222E58229F582E5834E
:1005F3003AF583E49322BB010689828A83F0225071
:1006030002F722BBFE01F322EF8DF0A4A8F0CF8CFA
:10061300F0A428CE8DF0A42EFE22E88FF0A4CC8B7C
:10062300F0A42CFCE98EF0A42CFC8AF0EDA42CFCA5
:10063300EA8EF0A4CDA8F08BF0A42DCC3825F0FDE4
:10064300E98FF0A42CCD35F0FCEB8EF0A4FEA9F0DD
:10065300EB8FF0A4CFC5F02ECD39FEE43CFCEAA429
:100663002DCE35F0FDE43CFC22C3E49FFFE49EFE67
:10067300E49DFDE49CFC22ECF0A3EDF0A3EEF0A3DB
:10068300EFF022A8828583F0D083D08212069D12D8
:10069300069D12069D12069DE473E493A3C583C5CC
:1006A300F0C583C8C582C8F0A3C583C5F0C583C898
:1006B300C582C822F8E0FBA3A3E0F925F0F0E582A8
:1006C300158270021583E0FA38F022EBF0A3EAF00A
:1006D300A3E9F022D083D082F8E4937012740193DB
:1006E300700DA3A393F8740193F5828883E4737464
:1006F30002936860EFA3A3A380DF75F008758200FF
:10070300EF2FFFEE33FECD33CDCC33CCC58233C5D3
:10071300829BED9AEC99E58298400CF582EE9BFE64
:10072300ED9AFDEC99FC0FD5F0D6E4CEFBE4CDFABF
:10073300E4CCF9A88222B800C1B90059BA002DEC63
:100743008BF084CFCECDFCE5F0CBF97818EF2FFFFB
:10075300EE33FEED33FDEC33FCEB33FB10D70399A3
:100763004004EB99FB0FD8E5E4F9FA227818EF2F50
:10077300FFEE33FEED33FDEC33FCC933C910D7056F
:100783009BE99A4007EC9BFCE99AF90FD8E0E4C98E
:10079300FAE4CCFB2275F010EF2FFFEE33FEED33BE
:1007A300FDCC33CCC833C810D7079BEC9AE89940EB
:1007B3000AED9BFDEC9AFCE899F80FD5F0DAE4CD4D
:1007C300FBE4CCFAE4C8F922E5082429F582E434F1
:1007D30000F583E0050822900026300703900029E6
:1007E300E475F0011206B70205B32000E97F2ED2AB
:1007F300008018EF540F2490D43440D4FF30040BFE
:10080300EF24BFB41A0050032461FFE50960021509
:1008130009050CE50C7002050B30070E900026E469
:1008230075F0011206B7EF0205F902188F7403D2AF
:10083300078003E4C207F5089000261206CEE4F50C
:1008430009F50BF50CE50960077F2012080E80F50A
:10085300750AFFC201C200C202C203C205C206C2B8
:10086300081207DAFF700D3007057F0012081FAF6B
:100873000CAE0B22B4255FC2D5C2041207DAFF24E3
:10088300D0B40A00501A75F00A780930D50508B6B5
:10089300FF0106C6A426F620D5047002D20380D930
:1008A30024CFB41A00EF5004C2E5D204020B11D2D4
:1008B3000180C6D20080C0D20280BCD2D580BAD219
:1008C3000580B47F2012080E2002077401B50900C9
:1008D30040F11207CBFF12080E020848D208D206D5
:1008E30080951207CBFB1207CBFA1207CBF94A4BC1
:1008F3007006790F7A0C7BFF20022EE509602A7EB1
:10090300008E827583001205CC60060EEE650A70B8
:10091300F0C2D5EBC0E0EAC0E0E9C0E0EE120B7232
:10092300D0E0F9D0E0FAD0E0FB1205B3FF60AAEB08
:10093300C0E0EAC0E0E9C0E012080ED0E02401F90B
:10094300D0E03400FAD0E0FBE50A0460DCD50AD934
:100953008087D20280A2120B5460F7E50A7001046B
:10096300120361A90A600DE50A600914F50A120B66
:10097300FCEF60F3EA30E702F404C3995079EAF438
:10098300250A0430E701E404F50A800D120B5460D4
:10099300C1EA050A250A120361EA900055F030E71F
:1009A30001E4250A04D50A0420050114120B72E49C
:1009B300C0E0120BFC900055E0601320E70714F031
:1009C3001207F6802204F0D0E014C0E07F00120783
:1009D300F6E50A60071207ED150A800B30050312CE
:1009E30007EDD0E0020848D0E00480C4120B546045
:1009F3009EE50A04120361900055EAF0E50A20051A
:100A0300026001042404120B7274FF04C0E0120B91
:100A1300FC1207F6E50A20050260031207EDD0E099
:100A2300B50AE87F45120800900055E07F2B30E7B8
:100A3300047F2DF404C0E012080ED0E075F00A84A0
:100A4300C0F01207F7D0E01207F7020848791080C8
:100A5300027908C206C2088008D2D5790A800479CF
:100A63000AC2D5E50A047002F50AE4FAFDFEFF1294
:100A730007CBFC7B082001131207CBFD7B10300052
:100A83000A1207CBFE1207CBFF7B20EC3382D592F1
:100A9300D55013C3E43000069FFFE49EFEE420011B
:100AA300039DFDE49CFCE4CBF8C201EC700CCFCEBB
:100AB300CDCCE824F8F870F38017C3EF33FFEE339F
:100AC300FEED33FDEC33FCEB33FB994002FB0FD817
:100AD300E9EB300105F8D0E0C448B201C0E00AEC0C
:100AE3004D4E4F78207B0070C2EAB50A0040BCC06F
:100AF300E0120B74D0F0D0E0200104C4C0E0C4B213
:100B030001C0F01207F7D0F0D5F0EB020848120647
:100B1300D708E5530A505808B64C08B2420A544F56
:100B23000A5C440A5C4908CB430A6255098F4609AB
:100B3300EF450959470C2F5008BA2D08BE2E08E17E
:100B43002B08C22308DF200C182A087A4800000863
:100B5300D9E50AB4FF03750A061207CBFC1207CBCB
:100B6300FD1207CBFE1207CBFF90004E02039E79C6
:100B73000AA2D5200314300509B910020404B908E8
:100B83000104A2D52006025001042002689202B596
:100B930009005034C0E07F203003197F30A2027275
:100BA300067205500F120BCBC202C206C205C20861
:100BB3007F30800F300503E9C0E012080E300503D3
:100BC300D0E0F9D0E0B509CC3005177F30B9100C6F
:100BD30012080E7F583004077F788003B908031288
:100BE300080E3002057F2D02080E7F202008F87FB3
:100BF3002B2006F322920280CF7F00B40700500B14
:100C0300244EF582E43400F583E0FF22286E756CF0
:100C13006C2900D2011207CB3001F8C201780930E8
:100C2300D50108F602087A2D504349581207CB2400
:100C330003B405004001E4900C2A931207FF743AB1
:100C43001207FFD203750904020A50900056EEF012
:100C5300A3EFF0A3EDF0E490005DF0900059E0FC09
:100C6300A3E0FDA3E0FEA3E0FF90005E12067A90EE
:100C73000059E0FCA3E0FDA3E0FEA3E0FF12182D62
:100C83001202E090006212067AC209E4FFFEFDFC44
:100C9300900059E0F8A3E0F9A3E0FAA3E0FB120205
:100CA300245002D209E4FFFEFDFC900059E0F8A3B2
:100CB300E0F9A3E0FAA3E0FB120224700690005DC2
:100CC300F0803A900062E0FCA3E0FDA3E0FEA3E025
:100CD300FFEC4D4E4F601D900062A3A3A3E47B0A7B
:100CE300FAF9F812177090006212067A90005DE02C
:100CF30004F080CF20090690005DE014F0900059C5
:100D0300E0FCA3E0FDA3E0FEA3E0FF121521503DAC
:100D130090005DE0FB7A007C007D06FF7E001206FA
:100D23000BC3740B9FFD74019EFC900056E0FEA361
:100D3300E0FFD39DEE9C400122900058E0FDEB24A0
:100D430004FBE43AFA121056EF703FC32290005DA1
:100D5300E0FB7A007C007D06FF7E0012060BC37465
:100D63001D9FFD74019EFC900056E0FEA3E0FFD39F
:100D73009DEE9C400122900058E0FDEB2401FBE432
:100D83003AFA121056EF7002C322900059E0FCA306
:100D9300E0FDA3E0FEA3E0FF12182D1202E0900095
:100DA3006212067A7F911216A47F131216A43009D9
:100DB30039E4900069F0A3F0900069E0FEA3E0FF3E
:100DC300C39406EE64809480501A74132FF58274D2
:100DD3001A1214D690006AE004F070DC900069E007
:100DE30004F080D490005DE014F090005DE0FF908B
:100DF3000067E4F0A3EFF0900067E0FEA3E0FFC319
:100E0300EE64809480407990006FEEF0A3EFF07F62
:100E13000A7E007D007C001212F6A804A905AA062A
:100E2300AB07900062E0FCA3E0FDA3E0FEA3E0FFBC
:100E3300121770E47B0AFAF9F8121770EB2430905A
:100E43000066F0E4900069F0A3F0900069E0FEA36F
:100E5300E0FFC39406EE6480948050131214BD9097
:100E6300006AE004F070E3900069E004F080DB9036
:100E73000068E024FFF0900067E034FFF0020DFA11
:100E8300900059E0FCA3E0FDA3E0FEA3E0FF1215F0
:100E9300214003020F79900059E0FCA3E0FDA3E099
:100EA300FEA3E0FF12182D90005E12067AE4900074
:100EB30069F0A3F0900069E0FEA3E0FFC39406EE9F
:100EC30064809480501A74192FF582741A1214D600
:100ED30090006AE004F070DC900069E004F080D4D4
:100EE300E4900067F0A3F0900067E0FEA3E0FFC387
:100EF3009402EE64809480507DEF2401FFE43E90E1
:100F0300006FF0A3EFF07F0A7E007D007C001212D9
:100F1300F6EC1202A290005EE0F8A3E0F9A3E0FA77
:100F2300A3E0FB12011E1202E0E47B0AFAF9F812B5
:100F33001770EB2430900066F0E4900069F0A3F0A2
:100F4300900069E0FEA3E0FFC39406EE6480948002
:100F530050131214BD90006AE004F070E39000692E
:100F6300E004F080DB900068E004F0700690006716
:100F7300E004F0020EEA12192D7F921216A4D32276
:100F8300E4900094F0C2A0D2A1D2A2D2A3D2A4C270
:100F9300A5C2A6C2A77F0AFE120003900093E5A094
:100FA300F0D2A5D2A6D2A7C2A1C2A2C2A3C2A47FD5
:100FB3000A7E00120003AFA0900093E04F1206D701
:100FC30010426E102B7610137A0FFB7C103BAE1081
:100FD30023B6100BBA0FF3BC1033CE101BD610037D
:100FE300DA0FEBDC0000104A9000947401F0805D8E
:100FF3009000947402F080559000947403F0804D37
:101003009000947404F080459000947405F0803D42
:101013009000947406F080359000947407F0802D4E
:101023009000947408F080259000947409F0801D5A
:10103300900094740BF08015E4900094F0800E906F
:101043000094740CF0800690009474FFF090009468
:10105300E0FF22900083EEF0A3EFF0A3EDF0A3EA0C
:10106300F0A3EBF07F901216A4900085E0FFC394E9
:10107300004013EFD3940F500DEF1215CE9000855F
:10108300E01215CE80037F0022900083E0FAA3E0F4
:10109300FBC3EA94004075900087E024FFFF9000B3
:1010A30086E034FFFE7C007D0612060BEB2FFFEA81
:1010B3003EFED3EF9422EE94015051900083E0540E
:1010C30001FF1215D4900083A3E0FF1215D4900002
:1010D30086E0FEA3E0FF7C007D0612060BEF24FFF3
:1010E300FFEE34FFFE900084E02F900083E03E5437
:1010F30001FF1215D4900086A3E075F006A414FF37
:10110300900083A3E02FFF1215D480037F00227F7A
:10111300011215D47F017E001200037F0122D292B7
:101123007F647E00120003C2927F647E001200037C
:10113300D2927FAE1216E87F021216E87F101216C3
:10114300E87F401216E87F811216E87FCF1216E877
:101153007FA11216E87FC81216E87FA61216E87F51
:10116300A81216E87F3F1216E87FD31216E8E4FFB1
:101173001216E87FD51216E87F801216E87FD9127F
:1011830016E87FF11216E87FDA1216E87F121216BC
:10119300E87FDB1216E87F401216E87F201216E87C
:1011A3007F021216E87F8D1216E87F141216E87F6D
:1011B300A41216E87FA61216E87FAF1216E87FAFD7
:1011C3001216E81217B4E4FDFF021866900026EF2A
:1011D300F0A3EDF0A3EBF0A3EAF0A3E9F0E4A3F0AE
:1011E300A3F0A3F0900028E0FBA3E0FAA3E0F990BA
:1011F300002DE0F5827583001205CC606924E09030
:10120300002BF0900026E0D394784006E4F0A3E0AE
:1012130004F0900026E0FFA3E0FD121866E49000BE
:101223002CF090002CE0FFC39406502A90002BE092
:1012330075F006A424C5F582E5F03419F583E5823B
:101243002FF582E43583F583E493FF12172C900086
:101253002CE004F080CC900026E02406F090002DD2
:10126300E004F00211E722900089EDF0A3EAF0A375
:10127300EBF0900088EFF07029900089E0D39400A0
:101283004070C294A3E0FEA3E0FF120003D2949047
:10129300008AE0FEA3E0FF120003900089E014F04F
:1012A30080D7900088E0B40129900089E0D39400AE
:1012B3004040C295A3E0FEA3E0FF120003D2959045
:1012C300008AE0FEA3E0FF120003900089E014F01F
:1012D30080D7C294C29590008AE0FEA3E0FF12007B
:1012E30003D294D29590008AE0FEA3E0FF1200039C
:1012F30080E02290006B12067A900073120686003B
:1013030000000190006FE0FAA3E0FB4A70067F0142
:10131300FEFDFC22900071EAF0A3EBF0D390007283
:10132300E09400900071E0648094804035900073F5
:10133300E0FCA3E0FDA3E0FEA3E0FF90006BE0F878
:10134300A3E0F9A3E0FAA3E0FB12061D90007312D9
:10135300067A900072E024FFF0900071E034FFF011
:1013630080BA900073E0FCA3E0FDA3E0FEA3E0FFDE
:101373002290008E74FFF0C2947F101216A4E490A2
:10138300008CF0A3F090008EE0FF1215D490008D36
:10139300E004F0700690008CE004F0C390008DE050
:1013A300948090008CE0941240DBD294C2957F131A
:1013B3001216A4E490008CF0A3F090008EE0FF12CC
:1013C30015D490008DE004F0700690008CE004F0DA
:1013D300C390008DE0948090008CE0941240DBD2A7
:1013E300952290000AEEF0A3EFF0A3EDF090002910
:1013F30074FFF0A37419F0A374C0F090000DE0FC27
:10140300A3E0FDA3E0FEA3E0FF90002C12067A7B8D
:10141300017A00791112083090000DE0FCA3E0FD81
:10142300A3E0FEA3E0FF12152140157B017A0079AA
:1014330011121970740E2FF58274003EF583E4F0D7
:1014430090000AA3E0FFA3E0FD7B017A007911027B
:1014530011CF900077EEF0A3EFF0A3EDF0A3EBF044
:101463007F911216A4900077E0FEA3E0FFA3E0FDB6
:101473007B017A00121056EF7002C3227F131216FB
:10148300A4E490007BF0A3F090007BE0FEA3E0FFD8
:10149300C39406EE64809480501690007A1214C0B0
:1014A30090007CE004F070E090007BE004F080D8D2
:1014B30012192D7F921216A4D322900066E075F0C4
:1014C30006A42405F582E5F03419F583E5822FF5AA
:1014D30082E5833EF583E493F4FF90008FEFF0C23F
:1014E30083D2821219AFE4900090F0C2851219AF33
:1014F30090008FE05401FF7004C2848002D28412F2
:1015030019AFD28590008FE0FFC313F01219AF908B
:101513000090E004F0E0C3940840D0D2832290000E
:101523002612067A900026E0FCA3E0FDA3E0FEA3CA
:10153300E0FF12182D90002612067A900026E0FC98
:10154300A3E0FDA3E0FEA3E0FF1202E0EC1202A27F
:10155300A804A905AA06AB07900026E0FCA3E0FDBA
:10156300A3E0FEA3E0FF120029E4FBFAF9F812025C
:1015730024500122C3227F101216A4E4900091F09C
:10158300A3F07FFF1215D4900092E004F070069050
:101593000091E004F0C3900092E09480900091E009
:1015A300941240DE7F131216A4E4900091F0A3F08E
:1015B300900092E004F07006900091E004F0900037
:1015C30091E0B412EBA3E0B480E62233333354F852
:1015D300FF90000AEFF0C283D2821219AFE49000A9
:1015E3000BF0C2851219AF90000AE05480FF70041B
:1015F300C2848002D2841219AFD28590000AE0FF20
:1016030025E0F01219AF90000BE004F0E0C394085A
:1016130040D0D283221219127F061216A47F17120A
:1016230015D47F171215D47F171215D47F04121601
:10163300A41218B6E4FF1216A47F171215D47F6103
:101643001216A47F801215D47F011215D47F28129D
:1016530015D47F501216A47F970215D490000074FE
:10166300FDF0A374B4F0A3120686CA4B76E590008E
:1016730006120686C2F66666121618121121121792
:10168300B490000D120686C89D0EC0E4FDFFFE1245
:1016930013E57BFF7A1779F37D01E4FF1211CF8005
:1016A300FE90000AEFF0C283C2821219AFE49000E9
:1016B3000BF0C2851219AF90000AE05480FF70044A
:1016C300C2848002D2841219AFD28590000AE0FF4F
:1016D30025E0F01219AF90000BE004F0E0C394088A
:1016E30040D0D2832290002FEFF0C294C2931219FC
:1016F300AFE4900030F0C2901219AF90002FE05485
:1017030080FF7004C2918002D2911219AFD29090DF
:10171300002FE0FF25E0F01219AF900030E004F055
:10172300E0C3940840D0D2942290002EEFF0C294EC
:10173300D2931219AFE490002FF0C2901219AF9018
:10174300002EE05480FF7004C2918002D2911219DE
:10175300AFD29090002EE0FF25E0F01219AF900079
:101763002FE004F0E0C3940840D0D29422C2D5E81D
:1017730030E70FB2D5E4C39BFBE49AFAE499F9E4AA
:1017830098F8EC30E717B2D51217A6120739E4C35D
:101793009BFBE49AFAE499F9E498F8800312073979
:1017A30030D50DE4C39FFFE49EFEE49DFDE49CFC65
:1017B30022E490000AF090000AE0FFC39408502F3F
:1017C300EF24B0FF1216E87F021216E87F101216FC
:1017D300E8E490000BF0E4FF12172C90000BE004F8
:1017E300F0E0C3948040EF90000AE004F080C72249
:1017F3006C69752078696E0000000000000000002D
:1018030000000000000000000000000000000000D5
:1018130000000000000000000000000000000000C5
:101823000000000000000000000090002A12067A69
:10183300E4FFFEFDFC90002AE0F8A3E0F9A3E0FA40
:10184300A3E0FB12022490002AE0FC500CA3E0FD6D
:10185300A3E0FEA3E0FF020291A3E0FDA3E0FEA349
:10186300E0FF2290002EEFF0ED24B0FF1216E89077
:10187300002EE0240254F0C4540F4410FF1216E863
:1018830090002EE02402540FFF0216E8EFB40A077B
:10189300740D12189A740A309811A899B8130CC2CF
:1018A300983098FDA899C298B811F63099FDC2995D
:1018B300F599227F711216A4D2807F027E00120056
:1018C30003A280E4337E0020E0027E01AF06EF70C6
:1018D300E27F96FE0200038F9920990BEF6004C20A
:1018E3009480F6C29580F2EF6004D2948002D29580
:1018F300C299227F501216A47FF71215D47F0212C9
:1019030016A41218B67F071216A47FA50215D4D207
:10191300817F967E00120003C2817F967E001200B3
:1019230003D2817F967E00020003C294C2957F1288
:101933001216A47F017E001200031218B6D294D2AD
:101943009522758920758DFD758BFDD28EC29FD230
:101953009ED29CD2AFD2AC2290007DEEF0A3EFF0EA
:10196300A3EDF0A3EBF0A3EAF0A3E9F022E4FFFE7A
:101973001205B3600C0FEF70010E09E970F20A80D3
:10198300EF227F8D1216E87F141216E87FAF02163E
:10199300E87F8D1216E87F101216E87FAE0216E874
:1019A300787FE4F6D8FD75812102165F7F05AE07C7
:1019B3001FEE60030080F722B2A3B28022252E32ED
:1019C30066000000000000000000002F000000007F
:1019D3000700070000147F147F1400242A7F2A12B3
:1019E30000626408132300364955225000000503A2
:1019F300000000001C224100000041221C000014D2
:101A0300083E08140008083E0808000000A0600013
:101A130000080808080800006060000000201008A3
:101A23000402003E5149453E0000427F400000420F
:101A330061514946002141454B31001814127F1072
:101A4300002745454539003C4A49493000017109A1
:101A5300050300364949493600064949291E000055
:101A630036360000000056360000000814224100FC
:101A7300001414141414000041221408000201512C
:101A8300090600324959513E007C1211127C007F35
:101A930049494936003E41414122007F4141221CD0
:101AA300007F49494941007F09090901003E414935
:101AB300497A007F0808087F0000417F4100002029
:101AC30040413F01007F08142241007F40404040D5
:101AD300007F020C027F007F0408107F003E41411B
:101AE300413E007F09090906003E4151215E007F06
:101AF300091929460046494949310001017F01017D
:101B0300003F4040403F001F2040201F003F40381F
:101B1300403F00631408146300070870080700615E
:101B23005149454300007F41410000552A552A553C
:101B3300000041417F0000040201020400404040D4
:101B43004040000001020400002054545478007FF8
:101B53004844443800384444442000384444487FCF
:101B630000385454541800087E0901020018A4A434
:101B7300A47C007F080404780000447D40000040FA
:101B830080847D00007F102844000000417F4000D6
:101B9300007C04180478007C08040478003844446A
:101BA300443800FC242424180018242418FC007C46
:101BB3000804040800485454542000043F444020BF
:101BC300003C4040207C001C2040201C003C403056
:101BD300403C004428102844001CA0A0A07C0044E2
:101BE30064544C440000187E810000817E1800007C
:101BF3000000FFFF0000081008040810C0F9A4B09B
:061C0300999282F8809026
:00000001FF
