:1000000002131DD3EF9400EE940040147DE87C03AE
:10001000ED1D70011CED4C70F7EF1F70E61E80E3C4
:0200200022328A
:1000230002002102034CE86480F8E933E8336011ED
:100033000460F0ED33EC337009E8FCE9FDEAFEEB14
:10004300FF220460DED3EB9FEA9EE99DE8C2E78CC2
:10005300F0C2F795F0400CE8CCF8E9CDF9EACEFA16
:10006300EBCFFB12031785D0F05804700320D5B3F0
:10007300E80470075002B2D502035692D5EC04602F
:10008300F7E4CCC0E0C398F8603B94186008400DD7
:10009300D0E0FB02032EE4FBFAC9FC8028E830E43D
:1000A30006E4C9FBE4CAFCE830E305E4C9CACBFCB7
:1000B300E854076010F8C3E913F9EA13FAEB13FBEA
:1000C300EC13FCD8F130F52FC3E49CFCEF9BFFEE5F
:1000D3009AFEED99FDD0E0FBEF4E4D4C701222DB02
:1000E30003020353EC2CFCEF33FFEE33FEED33FD41
:1000F300ED30E7EB02032EEF2BFFEE3AFEED39FD79
:10010300D0E0FB50130BBB0003020356ED13FDEECF
:1001130013FEEF13FFEC13FC02032EEC4D6011E80A
:10012300497017ED33EC3304600DE4FCFFFEFD2250
:10013300E933E8330470F802034C120317580460E0
:1001430009E4CC24815006285009020356284003B1
:10015300020353C0E0EB4A7044B98006D0E0FB02CF
:100163000342EF4E701CBD8008EBFFEAFEE9FD8001
:10017300EBE98DF0A4FEE5F0020207E9CDF9EAFE12
:10018300EBFFEF89F0A4FCE5F0CE89F0A42EFFE4A9
:1001930035F0CD89F0A42DFEE435F08067EF4E7085
:1001A30005BD80D780C3EF8BF0A4ACF0EE8BF0A439
:1001B3002CFCE435F0F8EF8AF0A42CE5F038FCE4ED
:1001C30033CB8DF0A42CFCE5F03BF8EE8AF0A42CA5
:1001D300FCE5F038F8E433CF89F0A42CFCE5F038E3
:1001E300CF3400CE89F0A42FFFE5F03EFEE433C9FF
:1001F3008DF0A42EFEE5F039CD8AF0A42FFFE5F0B3
:100203003EFEE43DFD33D0E0FB50070BBB000F0285
:100213000356EC2CFCEF33FFEE33FEED33FD02030C
:100223002E74F8CC6480CCC86480C8F58204604323
:10023300C3EB9FF5F0EA9E42F0E99D42F0E89C454E
:10024300F060305018E5825FFFE582F42B5582FBA6
:1002530050210ABA001D09B90019088016E5825B0E
:10026300FBE582F42F5582FF50090EBE00050DBD3C
:1002730000010CC3EB9FF5F0EA9E42F0E99D42F0CA
:10028300E89C45F06007CC4820E701B3EC22ED334E
:10029300EC33600A047003BD8004ECB2E7FC227502
:1002A300F020800E75F010800575F0087D007E004B
:1002B3007F003392D530D50312068EEC334010EF16
:1002C30033FFEE33FEED33FDEC33FCD5F0ED22E5E9
:1002D300F0247EA2D513CC92E7CDCEFF22EDD2E758
:1002E300CD33EC3392D524814006E4FFFEFDFC229E
:1002F300FCE4CFCECDCC24E0501174FF80EDC3CC11
:1003030013CCCD13CDCE13CECF13CF0470F030D595
:10031300DE02068EE9D2E7C933E833F892D5EDD28F
:10032300E7CD33EC33FC5002B2D522EC30E7100FAB
:10033300BF000C0EBE00080DBD00040BEB6014A241
:10034300D5EB13FCED92E7FD2274FFFCFDFEFF22CB
:10035300E480F8A2D574FF13FC7D80E480EFF920DC
:10036300E73624F950037907E4F42402FBE5821508
:100373008270021583DBF6E024FB501BE96014E472
:10038300F0E582158270021583E004F0B40A08E4F4
:10039300F0D9EE7401F00A22C2D522ED33EC339288
:1003A300D5FA602AB4FF33EDC2E77BFF60067A0318
:1003B30079C3E4227A0379CC20D5047A0379C7225E
:1003C3004E614E002B494E46002D494E4600E47ABD
:1003D30008F0A3DAFC7B00740722C083C082ECC060
:1003E300E0EDC0E0EEC0E0EFC0E0EA75F010A4CAB3
:1003F300ABF075F04DA42BFBE435F0FCEA2410FAC6
:10040300EB34C5FBEC34D9FCEDC2E7FF75F056A421
:10041300F42411C5F0F434C58FF0A42AE5F03BE4CD
:100423003CF020E714120573D0E0FFD0E0FED0E0EB
:10043300FDD0E0FC1204A68014F404120573D0E08E
:10044300FFD0E0FED0E0FDD0E0FC12011ED082D050
:1004530083E0FAEDD2E7CD33EC332482FBE4C3CF60
:1004630033CFCE33CECD33CD33DBF37B0775F00AF9
:10047300846004F0A31B0AE5F0F0A38FF0740AA4D0
:10048300FFACF08EF0740AA42CFEACF050010C8D7E
:10049300F0740AA42CFDE435F0F0A3DBDE7407222C
:1004A300020356EC5D046005E85904700302034C33
:1004B300120317580460F6EC4860F2EC7004FDFE7A
:1004C300FF22C860DB2481C85009C398600250062C
:1004D3000203539850CAF582E9294B4A7005AB824F
:1004E30002034275F0007C1A7880C3EF9BEE9AED0D
:1004F30099400DC3EF9BFFEE9AFEED99FDE842F0A4
:10050300DC23ACF0D0E0FFD0E0FED0E0FDAB8220F6
:10051300E7101BEB60BAEC2CFCEF33FFEE33FEED80
:1005230033FD02032EE803F830E705C0F075F00051
:10053300EF2FFFEE33FEED33FD40B830E7C280AA64
:100543003F8000004120000042C80000447A0000C0
:10055300461C400047C35000497424004B18968042
:100563004CBEBC205A0E1BCA6753C21C749DC5AE39
:10057300FB60065407601C23231205A1EB5438606B
:100583000912058D12059C12011EECF8EDF9EEFA25
:10059300EFCB22EB12059C80F1543803241C900509
:1005A30043FE93FC0EEE93FD0EEE930ECE93FF22CD
:1005B300BB010689828A83E0225002E722BBFE0246
:1005C300E32289828A83E49322BB010CE58229F525
:1005D30082E5833AF583E0225006E92582F8E62294
:1005E300BBFE06E92582F8E222E58229F582E5834E
:1005F3003AF583E49322BB010689828A83F0225071
:1006030002F722BBFE01F322F8BB010DE58229F5B7
:1006130082E5833AF583E8F0225006E92582C8F69D
:1006230022BBFE05E92582C8F222EF8DF0A4A8F0D3
:10063300CF8CF0A428CE8DF0A42EFE22E88FF0A458
:10064300CC8BF0A42CFCE98EF0A42CFC8AF0EDA456
:100653002CFCEA8EF0A4CDA8F08BF0A42DCC382589
:10066300F0FDE98FF0A42CCD35F0FCEB8EF0A4FE69
:10067300A9F0EB8FF0A4CFC5F02ECD39FEE43CFCFE
:10068300EAA42DCE35F0FDE43CFC22C3E49FFFE455
:100693009EFEE49DFDE49CFC22ECF0A3EDF0A3EEB2
:1006A300F0A3EFF022A8828583F0D083D0821206D4
:1006B300BF1206BF1206BF1206BFE473E493A3C5BD
:1006C30083C5F0C583C8C582C8F0A3C583C5F0C57B
:1006D30083C8C582C822F8E0FBA3A3E0F925F0F0A4
:1006E300E582158270021583E0FA38F022EBF0A35D
:1006F300EAF0A3E9F022D083D082F8E49370127475
:100703000193700DA3A393F8740193F5828883E496
:10071300737402936860EFA3A3A380DF75F0087579
:100723008200EF2FFFEE33FECD33CDCC33CCC58229
:1007330033C5829BED9AEC99E58298400CF582EEE5
:100743009BFEED9AFDEC99FC0FD5F0D6E4CEFBE4CD
:10075300CDFAE4CCF9A88222B800C1B90059BA0095
:100763002DEC8BF084CFCECDFCE5F0CBF97818EFF0
:100773002FFFEE33FEED33FDEC33FCEB33FB10D7F1
:1007830003994004EB99FB0FD8E5E4F9FA227818B2
:10079300EF2FFFEE33FEED33FDEC33FCC933C9100D
:1007A300D7059BE99A4007EC9BFCE99AF90FD8E03F
:1007B300E4C9FAE4CCFB2275F010EF2FFFEE33FE11
:1007C300ED33FDCC33CCC833C810D7079BEC9AE884
:1007D30099400AED9BFDEC9AFCE899F80FD5F0DA05
:1007E300E4CDFBE4CCFAE4C8F922E5082417F5824A
:1007F300E43400F583E005082290001430070390E9
:100803000017E475F0011206D90205B32000E97F51
:100813002ED2008018EF540F2490D43440D4FF30EC
:10082300040BEF24BFB41A0050032461FFE50960F1
:10083300021509050CE50C7002050B30070E90003C
:1008430014E475F0011206D9EF0205F90219557483
:1008530003D2078003E4C207F5089000141206F0E0
:10086300E4F509F50BF50CE50960077F2012083064
:1008730080F5750AFFC201C200C202C203C205C2EB
:1008830006C2081207FCFF700D3007057F0012082F
:1008930041AF0CAE0B22B4255FC2D5C2041207FCD4
:1008A300FF24D0B40A00501A75F00A780930D50530
:1008B30008B6FF0106C6A426F620D5047002D203AB
:1008C30080D924CFB41A00EF5004C2E5D204020B3E
:1008D30033D20180C6D20080C0D20280BCD2D58080
:1008E300BAD20580B47F201208302002077401B504
:1008F300090040F11207EDFF12083002086AD2081E
:10090300D20680951207EDFB1207EDFA1207EDF9F7
:100913004A4B700679317A0C7BFF20022EE5096081
:100923002A7E008E827583001205CC60060EEE656A
:100933000A70F0C2D5EBC0E0EAC0E0E9C0E0EE1215
:100943000B94D0E0F9D0E0FAD0E0FB1205B3FF60DE
:10095300AAEBC0E0EAC0E0E9C0E0120830D0E0242E
:1009630001F9D0E03400FAD0E0FBE50A0460DCD5FD
:100973000AD98087D20280A2120B7660F7E50A704B
:100983000104120361A90A600DE50A600914F50A5E
:10099300120C1EEF60F3EA30E702F404C3995079B6
:1009A300EAF4250A0430E701E404F50A800D120B8A
:1009B3007660C1EA050A250A120361EA900043F052
:1009C30030E701E4250A04D50A0420050114120BBB
:1009D30094E4C0E0120C1E900043E0601320E7078C
:1009E30014F0120818802204F0D0E014C0E07F0055
:1009F300120818E50A600712080F150A800B300564
:100A03000312080FD0E002086AD0E00480C4120B7E
:100A130076609EE50A04120361900043EAF0E50A5A
:100A23002005026001042404120B9474FF04C0E047
:100A3300120C1E120818E50A200502600312080FA3
:100A4300D0E0B50AE87F45120822900043E07F2BEF
:100A530030E7047F2DF404C0E0120830D0E075F0D5
:100A63000A84C0F0120819D0E012081902086A7942
:100A73001080027908C206C2088008D2D5790A809C
:100A830004790AC2D5E50A047002F50AE4FAFDFE08
:100A9300FF1207EDFC7B082001131207EDFD7B100D
:100AA30030000A1207EDFE1207EDFF7B20EC3382C4
:100AB300D592D55013C3E43000069FFFE49EFEE4B5
:100AC3002001039DFDE49CFCE4CBF8C201EC700C17
:100AD300CFCECDCCE824F8F870F38017C3EF33FF03
:100AE300EE33FEED33FDEC33FCEB33FB994002FBBD
:100AF3000FD8E9EB300105F8D0E0C448B201C0E0FB
:100B03000AEC4D4E4F78207B0070C2EAB50A0040D4
:100B1300BCC0E0120B96D0F0D0E0200104C4C0E0CA
:100B2300C4B201C0F0120819D0F0D5F0EB02086A84
:100B33001206F90907530A725808D84C08D4420A16
:100B4300764F0A7E440A7E4908ED430A845509B16B
:100B5300460A1145097B470C515008DC2D08E02E4D
:100B630009032B08E4230901200C3A2A089C4800B6
:100B73000008FBE50AB4FF03750A061207EDFC1231
:100B830007EDFD1207EDFE1207EDFF90003C020397
:100B93009E790AA2D5200314300509B91002040472
:100BA300B9080104A2D5200602500104200268926C
:100BB30002B509005034C0E07F203003197F30A212
:100BC3000272067205500F120BEDC202C206C20575
:100BD300C2087F30800F300503E9C0E012083030CF
:100BE3000503D0E0F9D0E0B509CC3005177F30B963
:100BF300100C1208307F583004077F788003B9083F
:100C0300031208303002057F2D0208307F202008B0
:100C1300F87F2B2006F322920280CF7F00B40700D7
:100C2300500B243CF582E43400F583E0FF22286E68
:100C3300756C6C2900D2011207ED3001F8C20178FE
:100C43000930D50108F602089C2D50434958120774
:100C5300ED2403B405004001E4900C4C93120821E9
:100C6300743A120821D203750904020A72900076BD
:100C7300EEF0A3EFF0A3EDF0E490007DF0900079A7
:100C8300E0FCA3E0FDA3E0FEA3E0FF90007E1206DC
:100C93009C900079E0FCA3E0FDA3E0FEA3E0FF123B
:100CA30018BA1202E090008212069CC209E4FFFE09
:100CB300FDFC900079E0F8A3E0F9A3E0FAA3E0FBE0
:100CC3001202245002D209E4FFFEFDFC900079E0F9
:100CD300F8A3E0F9A3E0FAA3E0FB12022470069064
:100CE300007DF0803A900082E0FCA3E0FDA3E0FEEB
:100CF300A3E0FFEC4D4E4F601D900082A3A3A3E43D
:100D03007B0AFAF9F81217FA90008212069C9000F7
:100D13007DE004F080CF20090690007DE014F09080
:100D23000079E0FCA3E0FDA3E0FEA3E0FF1215F0D1
:100D3300503D90007DE0FB7A007C007D06FF7E0045
:100D430012062DC3740B9FFD74019EFC900076E088
:100D5300FEA3E0FFD39DEE9C400122900078E0FDCE
:100D6300EB2404FBE43AFA121078EF703FC32290AD
:100D7300007DE0FB7A007C007D06FF7E0012062DDD
:100D8300C3741D9FFD74019EFC900076E0FEA3E0FA
:100D9300FFD39DEE9C400122900078E0FDEB2401FF
:100DA300FBE43AFA121078EF7002C322900079E064
:100DB300FCA3E0FDA3E0FEA3E0FF1218BA1202E0D9
:100DC30090008212069C7F9112172E7F1312172E0A
:100DD300300939E4900089F0A3F0900089E0FEA384
:100DE300E0FFC39406EE64809480501A74D22FF50A
:100DF30082741A1215A590008AE004F070DC90004A
:100E030089E004F080D490007DE014F090007DE050
:100E1300FF900087E4F0A3EFF0900087E0FEA3E0EB
:100E2300FFC3EE64809480407990008FEEF0A3EFCF
:100E3300F07F0A7E007D007C00121435A804A9050A
:100E4300AA06AB07900082E0FCA3E0FDA3E0FEA3AB
:100E5300E0FF1217FAE47B0AFAF9F81217FAEB2407
:100E630030900086F0E4900089F0A3F0900089E0D0
:100E7300FEA3E0FFC39406EE648094805013121522
:100E83008C90008AE004F070E3900089E004F08025
:100E9300DB900088E024FFF0900087E034FFF0024D
:100EA3000E1C900079E0FCA3E0FDA3E0FEA3E0FFAD
:100EB3001215F04003020F9B900079E0FCA3E0FDC4
:100EC300A3E0FEA3E0FF1218BA90007E12069CE492
:100ED300900089F0A3F0900089E0FEA3E0FFC394A3
:100EE30006EE64809480501A74D82FF582741A1217
:100EF30015A590008AE004F070DC900089E004F00E
:100F030080D4E4900087F0A3F0900087E0FEA3E094
:100F1300FFC39402EE64809480507DEF2401FFE4CC
:100F23003E90008FF0A3EFF07F0A7E007D007C00EF
:100F3300121435EC1202A290007EE0F8A3E0F9A3AC
:100F4300E0FAA3E0FB12011E1202E0E47B0AFAF9C5
:100F5300F81217FAEB2430900086F0E4900089F041
:100F6300A3F0900089E0FEA3E0FFC39406EE648043
:100F73009480501312158C90008AE004F070E39073
:100F83000089E004F080DB900088E004F0700690B4
:100F93000087E004F0020F0C121A0F7F9212172E33
:100FA300D322E49000B7F0C2A0D2A1D2A2D2A3D29E
:100FB300A4C2A5C2A6C2A77F0AFE1200039000B670
:100FC300E5A0F0D2A5D2A6D2A7C2A1C2A2C2A3C253
:100FD300A47F0A7E00120003AFA09000B6E04F1278
:100FE30006F910646E104D7610357A101D7C105D75
:100FF300AE1045B6102DBA1015BC1055CE103DD607
:101003001025DA100DDC0000106C9000B77401F0AD
:10101300805D9000B77402F080559000B77403F0C0
:10102300804D9000B77404F080459000B77405F0CC
:10103300803D9000B77406F080359000B77407F0D8
:10104300802D9000B77408F080259000B77409F0E4
:10105300801D9000B7740BF08015E49000B7F0800A
:101063000E9000B7740CF080069000B774FFF090F8
:1010730000B7E0FF229000A6EEF0A3EFF0A3EDF09F
:10108300A3EAF0A3EBF07F9012172E9000A8E0FFE5
:10109300C394004013EFD3940F500DEF12169D909D
:1010A30000A8E012169D80037F00229000A6E0FABC
:1010B300A3E0FBC3EA940040759000AAE024FFFF7D
:1010C3009000A9E034FFFE7C007D0612062DEB2F75
:1010D300FFEA3EFED3EF9422EE940150519000A616
:1010E300E05401FF1216A39000A6A3E0FF1216A37B
:1010F3009000A9E0FEA3E0FF7C007D0612062DEF21
:1011030024FFFFEE34FFFE9000A7E02F9000A6E03F
:101113003E5401FF1216A39000A9A3E075F006A4A4
:1011230014FF9000A6A3E02FFF1216A380037F00F5
:10113300227F011216A37F017E001200037F01228A
:10114300D2927F647E00120003C2927F647E0012FB
:101153000003D2927FAE1217727F021217727F10B2
:101163001217727F401217727F811217727FCF128C
:1011730017727FA11217727FC81217727FA61217F8
:10118300727FA81217727F3F1217727FD3121772E2
:10119300E4FF1217727FD51217727F801217727FC6
:1011A300D91217727FF11217727FDA1217727F1238
:1011B3001217727FDB1217727F401217727F201291
:1011C30017727F021217727F8D1217727F14121714
:1011D300727FA41217727FA61217727FAF12177253
:1011E3007FAF12177212183EE4FDFF02192A900016
:1011F30014EFF0A3EDF0A3EBF0A3EAF0A3E9F0E41E
:10120300A3F0A3F0A3F0900016E0FBA3E0FAA3E0A1
:10121300F990001BE0F5827583001205CC60692408
:10122300E0900019F0900014E0D394784006E4F0C5
:10123300A3E004F0900014E0FFA3E0FD12192AE4F8
:1012430090001AF090001AE0FFC39406502A900011
:1012530019E075F006A42484F582E5F0341AF583C9
:10126300E5822FF582E43583F583E493FF1217B605
:1012730090001AE004F080CC900014E02406F09073
:10128300001BE004F00212092290000AEEF0A3EF23
:10129300F0A3EDF090001774FFF0A3741AF0A37499
:1012A30081F090000DE0FCA3E0FDA3E0FEA3E0FFCE
:1012B30090001A12069C900011E0FBA3E0FAA3E051
:1012C300F912085290000DE0FCA3E0FDA3E0FEA399
:1012D300E0FF1215F0900011E0FBA3E0FAA3E0F9A0
:1012E3005008121A3DEF24FC8006121A3DEF24F930
:1012F300FFEE34FFFE900011E0FBA3E0FAA3E0F958
:101303008F828E83E412060B900011E0FBA3E0FAB8
:10131300A3E0F97D07E4FF0211F1787FE4F6D8FD3D
:1013230075812102136402187DE493A3F8E493A367
:101333004003F68001F208DFF48029E493A3F85414
:1013430007240CC8C333C4540F4420C8834004F497
:1013530056800146F6DFE4800B01020408102040AA
:10136300809018F3E47E019360BCA3FF543F30E503
:1013730009541FFEE493A360010ECF54C025E0601F
:10138300A840B8E493A3FAE493A3F8E493A3C8C5ED
:1013930082C8CAC583CAF0A3C8C582C8CAC583CADE
:1013A300DFE9DEE780BE9000ACEDF0A3EAF0A3EB4B
:1013B300F09000ABEFF070299000ACE0D3940040C4
:1013C30070C294A3E0FEA3E0FF120003D294900046
:1013D300ADE0FEA3E0FF1200039000ACE014F08048
:1013E300D79000ABE0B401299000ACE0D394004067
:1013F30040C295A3E0FEA3E0FF120003D295900044
:10140300ADE0FEA3E0FF1200039000ACE014F08017
:10141300D7C294C2959000ADE0FEA3E0FF12000393
:10142300D294D2959000ADE0FEA3E0FF12000380BA
:10143300E02290008B12069C9000931206A80000F5
:10144300000190008FE0FAA3E0FB4A70067F01FEE3
:10145300FDFC22900091EAF0A3EBF0D3900092E020
:101463009400900091E0648094804035900093E074
:10147300FCA3E0FDA3E0FEA3E0FF90008BE0F8A354
:10148300E0F9A3E0FAA3E0FB12063F9000931206F3
:101493009C900092E024FFF0900091E034FFF080F4
:1014A300BA900093E0FCA3E0FDA3E0FEA3E0FF22DB
:1014B3009000B174FFF0C2947F1012172EE49000D5
:1014C300AFF0A3F09000B1E0FF1216A39000B0E0DC
:1014D30004F070069000AFE004F0C39000B0E09415
:1014E300809000AFE0941240DBD294C2957F131238
:1014F300172EE49000AFF0A3F09000B1E0FF1216B6
:10150300A39000B0E004F070069000AFE004F0C3D5
:101513009000B0E094809000AFE0941240DBD2954D
:10152300229000A0EEF0A3EFF0A3EDF0A3EBF07F89
:101533009112172E9000A0E0FEA3E0FFA3E0FD7B35
:10154300017A00121078EF7002C3227F1312172E54
:10155300E49000A4F0A3F09000A4E0FEA3E0FFC396
:101563009406EE6480948050169000A312158F9019
:1015730000A5E004F070E09000A4E004F080D8122D
:101583001A0F7F9212172ED322900086E075F00671
:10159300A424C4F582E5F03419F583E5822FF5829E
:1015A300E5833EF583E493F4FF9000B2EFF0C2834A
:1015B300D282121A70E49000B3F0C285121A7090AE
:1015C30000B2E05401FF7004C2848002D284121A74
:1015D30070D2859000B2E0FFC313F0121A7090002E
:1015E300B3E004F0E0C3940840D0D2832290001407
:1015F30012069C900014E0FCA3E0FDA3E0FEA3E030
:10160300FF1218BA90001412069C900014E0FCA379
:10161300E0FDA3E0FEA3E0FF1202E0EC1202A2A8A9
:1016230004A905AA06AB07900014E0FCA3E0FDA300
:10163300E0FEA3E0FF120029E4FBFAF9F81202240A
:10164300500122C3227F1012172EE49000B4F0A39E
:10165300F07FFF1216A39000B5E004F0700690002F
:10166300B4E004F0C39000B5E094809000B4E0943B
:101673001240DE7F1312172EE49000B4F0A3F09013
:1016830000B5E004F070069000B4E004F09000B4FC
:10169300E0B412EBA3E0B480E62233333354F8FF13
:1016A30090000AEFF0C283D282121A70E490000B0A
:1016B300F0C285121A7090000AE05480FF7004C2D1
:1016C300848002D284121A70D28590000AE0FF252A
:1016D300E0F0121A7090000BE004F0E0C3940840AD
:1016E300D0D283221219F47F0612172E7F171216F7
:1016F300A37F171216A37F171216A37F0412172EA8
:1017030012197CE4FF12172E7F171216A37F6112A2
:10171300172E7F801216A37F011216A37F2812169D
:10172300A37F5012172E7F970216A390000AEFF0A3
:10173300C283C282121A70E490000BF0C285121A9F
:101743007090000AE05480FF7004C2848002D28447
:10175300121A70D28590000AE0FF25E0F0121A7089
:1017630090000BE004F0E0C3940840D0D2832290B1
:10177300001DEFF0C294C293121A70E490001EF0A1
:10178300C290121A7090001DE05480FF7004C29141
:101793008002D291121A70D29090001DE0FF25E0D2
:1017A300F0121A7090001EE004F0E0C3940840D0D9
:1017B300D2942290001CEFF0C294D293121A70E4D8
:1017C30090001DF0C290121A7090001CE05480FF2C
:1017D3007004C2918002D291121A70D29090001CB0
:1017E300E0FF25E0F0121A7090001DE004F0E0C362
:1017F300940840D0D29422C2D5E830E70FB2D5E4A2
:10180300C39BFBE49AFAE499F9E498F8EC30E71700
:10181300B2D512183012075BE4C39BFBE49AFAE4D7
:1018230099F9E498F8800312075B30D50DE4C39F60
:10183300FFE49EFEE49DFDE49CFC22E490000AF09C
:1018430090000AE0FFC39408502FEF24B0FF121753
:10185300727F021217727F10121772E490000BF05E
:10186300E4FF1217B690000BE004F0E0C39480404D
:10187300EF90000AE004F080C72290000074FDF0AE
:10188300A374B4F0A31206A8CA4B76E5900006121F
:1018930006A8C2F666661216E712114312183E90A6
:1018A300000D1206A844FCA6667D02E4FFFE121298
:1018B3008CD294D29480FE90001812069CE4FFFE12
:1018C300FDFC900018E0F8A3E0F9A3E0FAA3E0FB25
:1018D300120224900018E0FC500CA3E0FDA3E0FEEC
:1018E300A3E0FF020291A3E0FDA3E0FEA3E0FF2239
:1018F300603200440000000000000000000000000F
:1019030000000000000000000000000000000000D4
:1019130000000000000000000000000000000000C4
:101923000000000000000090001CEFF0ED24B0FF69
:1019330012177290001CE0240254F0C4540F441098
:10194300FF12177290001CE02402540F4401FF029F
:101953001772EFB40A07740D121960740A309811E4
:10196300A899B8130CC2983098FDA899C298B811D9
:10197300F63099FDC299F599227F7112172ED28004
:101983007F027E00120003A280E4337E0020E00287
:101993007E01AF06EF70E27F96FE0200038F99206F
:1019A300990BEF6004C29480F6C29580F2EF600455
:1019B300D2948002D295C299227F5012172E7FF7BC
:1019C3001216A37F0212172E12197C7F0712172EED
:1019D3007FA50216A3900097EEF0A3EFF0A3EDF01E
:1019E300A3EBF0A3EAF0A3E9F0E4A3F0A3F0A3F0E0
:1019F30022D2817F967E00120003C2817F967E00F1
:101A0300120003D2817F967E00020003C294C29526
:101A13007F1212172E7F017E0012000312197CD24F
:101A230094D29522758920758DFD758BFDD28EC25A
:101A33009FD29ED29CD2AFD2AC22E4FFFE1205B35A
:101A4300600C0FEF70010E09E970F20A80EF227F3C
:101A53008D1217727F141217727FAF0217727F8D68
:101A63001217727F101217727FAE0217727F05AEC4
:101A7300071FEE60030080F722B2A3B2802225661F
:101A8300000000000000000000002F00000000071D
:101A930000070000147F147F1400242A7F2A1200F9
:101AA30062640813230036495522500000050300E1
:101AB3000000001C224100000041221C0000140809
:101AC3003E08140008083E0808000000A06000005B
:101AD30008080808080000606000000020100804DF
:101AE30002003E5149453E0000427F4000004261F2
:101AF300514946002141454B31001814127F100013
:101B03002745454539003C4A4949300001710905DB
:101B13000300364949493600064949291E00003663
:101B23003600000000563600000008142241000071
:101B33001414141414000041221408000201510962
:101B43000600324959513E007C1211127C007F4934
:101B5300494936003E41414122007F4141221C0058
:101B63007F49494941007F09090901003E4149492B
:101B73007A007F0808087F0000417F410000204071
:101B8300413F01007F08142241007F404040400054
:101B93007F020C027F007F0408107F003E41414119
:101BA3003E007F09090906003E4151215E007F097D
:101BB3001929460046494949310001017F010100C5
:101BC3003F4040403F001F2040201F003F4038401F
:101BD3003F0063140814630007087008070061518D
:101BE30049454300007F41410000552A552A5500CD
:101BF3000041417F000004020102040040404040D4
:101C030040000001020400002054545478007F482F
:101C130044443800384444442000384444487F0056
:101C2300385454541800087E0901020018A4A4A4CF
:101C33007C007F080404780000447D40000040805D
:101C4300847D00007F102844000000417F40000095
:101C53007C04180478007C08040478003844444465
:101C63003800FC242424180018242418FC007C08C1
:101C730004040800485454542000043F4440200006
:101C83003C4040207C001C2040201C003C40304055
:101C93003C004428102844001CA0A0A07C004464FD
:101CA300544C440000187E810000817E180000001F
:101CB30000FFFF0000081008040810C0F9A4B09941
:051CC3009282F8809000
:00000001FF
